{
  "contractName": "Market",
  "abi": [
    {
      "constant": true,
      "inputs": [
        {
          "name": "",
          "type": "address"
        }
      ],
      "name": "people",
      "outputs": [
        {
          "name": "name",
          "type": "string"
        }
      ],
      "payable": false,
      "stateMutability": "view",
      "type": "function",
      "signature": "0x07de9735"
    },
    {
      "constant": true,
      "inputs": [
        {
          "name": "",
          "type": "address"
        }
      ],
      "name": "isAdmin",
      "outputs": [
        {
          "name": "",
          "type": "bool"
        }
      ],
      "payable": false,
      "stateMutability": "view",
      "type": "function",
      "signature": "0x24d7806c"
    },
    {
      "constant": false,
      "inputs": [],
      "name": "emergencyStop",
      "outputs": [],
      "payable": false,
      "stateMutability": "nonpayable",
      "type": "function",
      "signature": "0x63a599a4"
    },
    {
      "constant": true,
      "inputs": [],
      "name": "stopped",
      "outputs": [
        {
          "name": "",
          "type": "bool"
        }
      ],
      "payable": false,
      "stateMutability": "view",
      "type": "function",
      "signature": "0x75f12b21"
    },
    {
      "constant": false,
      "inputs": [],
      "name": "release",
      "outputs": [],
      "payable": false,
      "stateMutability": "nonpayable",
      "type": "function",
      "signature": "0x86d1a69f"
    },
    {
      "constant": true,
      "inputs": [
        {
          "name": "",
          "type": "uint256"
        }
      ],
      "name": "stores",
      "outputs": [
        {
          "name": "storeOwner",
          "type": "address"
        },
        {
          "name": "storeName",
          "type": "string"
        },
        {
          "name": "storeSkuCount",
          "type": "uint256"
        },
        {
          "name": "storeBalance",
          "type": "uint256"
        }
      ],
      "payable": false,
      "stateMutability": "view",
      "type": "function",
      "signature": "0xe8a59cd8"
    },
    {
      "constant": false,
      "inputs": [
        {
          "name": "newOwner",
          "type": "address"
        }
      ],
      "name": "transferOwnership",
      "outputs": [],
      "payable": false,
      "stateMutability": "nonpayable",
      "type": "function",
      "signature": "0xf2fde38b"
    },
    {
      "inputs": [],
      "payable": false,
      "stateMutability": "nonpayable",
      "type": "constructor",
      "signature": "constructor"
    },
    {
      "payable": false,
      "stateMutability": "nonpayable",
      "type": "fallback"
    },
    {
      "anonymous": false,
      "inputs": [
        {
          "indexed": false,
          "name": "_sku",
          "type": "uint256"
        },
        {
          "indexed": false,
          "name": "_storeID",
          "type": "uint256"
        },
        {
          "indexed": false,
          "name": "_name",
          "type": "string"
        },
        {
          "indexed": false,
          "name": "_quantity",
          "type": "uint256"
        }
      ],
      "name": "ForSale",
      "type": "event",
      "signature": "0x0004dadcdf342dce90d0bed1bc9d084fe3476b947f1fa7d0e9214836b8fbc071"
    },
    {
      "anonymous": false,
      "inputs": [
        {
          "indexed": false,
          "name": "_sku",
          "type": "uint256"
        },
        {
          "indexed": false,
          "name": "_storeID",
          "type": "uint256"
        },
        {
          "indexed": false,
          "name": "_quantity",
          "type": "uint256"
        }
      ],
      "name": "Sold",
      "type": "event",
      "signature": "0xb94ad6b739f9bef4a950b4e9ce06c0f6f6bcfc31bea46cc96187fb7cd1066cab"
    },
    {
      "anonymous": false,
      "inputs": [
        {
          "indexed": false,
          "name": "_user",
          "type": "address"
        }
      ],
      "name": "AdminAdded",
      "type": "event",
      "signature": "0x44d6d25963f097ad14f29f06854a01f575648a1ef82f30e562ccd3889717e339"
    },
    {
      "anonymous": false,
      "inputs": [
        {
          "indexed": false,
          "name": "_user",
          "type": "address"
        }
      ],
      "name": "AdminRemoved",
      "type": "event",
      "signature": "0xa3b62bc36326052d97ea62d63c3d60308ed4c3ea8ac079dd8499f1e9c4f80c0f"
    },
    {
      "anonymous": false,
      "inputs": [
        {
          "indexed": false,
          "name": "_owner",
          "type": "address"
        },
        {
          "indexed": false,
          "name": "_name",
          "type": "string"
        },
        {
          "indexed": false,
          "name": "_skuCount",
          "type": "uint256"
        }
      ],
      "name": "StoreAdded",
      "type": "event",
      "signature": "0xe92ae8a235222aeb21f92971dd64a849c4ba8949f40711335f43e76f0074d2e2"
    },
    {
      "anonymous": false,
      "inputs": [
        {
          "indexed": false,
          "name": "_user",
          "type": "address"
        }
      ],
      "name": "StoreRemoved",
      "type": "event",
      "signature": "0x8a3674246878227c5067d2b007a4bacdcade1cc2e8528c08c068d1987e99119c"
    },
    {
      "anonymous": false,
      "inputs": [
        {
          "indexed": false,
          "name": "_storeID",
          "type": "uint256"
        },
        {
          "indexed": false,
          "name": "balanceToWithdraw",
          "type": "uint256"
        }
      ],
      "name": "StoreBalanceWithdrawn",
      "type": "event",
      "signature": "0x6a428efd7d4047ca307658bde77396d9c8e8d69db0f2bdb84b71f88870647538"
    },
    {
      "anonymous": false,
      "inputs": [
        {
          "indexed": false,
          "name": "_storeID",
          "type": "uint256"
        },
        {
          "indexed": false,
          "name": "_sku",
          "type": "uint256"
        }
      ],
      "name": "ItemDeleted",
      "type": "event",
      "signature": "0xd2dd399ffb85e7eb11adef9ec4596e2d4f0efd88638581a6b56c14978923d4b3"
    },
    {
      "constant": true,
      "inputs": [
        {
          "name": "_storeID",
          "type": "uint256"
        }
      ],
      "name": "getStoreItemCount",
      "outputs": [
        {
          "name": "",
          "type": "uint256"
        }
      ],
      "payable": false,
      "stateMutability": "view",
      "type": "function",
      "signature": "0xc806b275"
    },
    {
      "constant": true,
      "inputs": [],
      "name": "getStoreCount",
      "outputs": [
        {
          "name": "",
          "type": "uint256"
        }
      ],
      "payable": false,
      "stateMutability": "view",
      "type": "function",
      "signature": "0x98e8bd97"
    },
    {
      "constant": true,
      "inputs": [
        {
          "name": "_storeID",
          "type": "uint256"
        },
        {
          "name": "_itemCode",
          "type": "uint256"
        }
      ],
      "name": "getOrderDetails",
      "outputs": [
        {
          "name": "",
          "type": "uint256"
        },
        {
          "name": "",
          "type": "uint256"
        }
      ],
      "payable": false,
      "stateMutability": "view",
      "type": "function",
      "signature": "0x2c203edd"
    },
    {
      "constant": false,
      "inputs": [
        {
          "name": "_name",
          "type": "string"
        },
        {
          "name": "_price",
          "type": "uint256"
        },
        {
          "name": "_sku",
          "type": "uint256"
        },
        {
          "name": "_storeID",
          "type": "uint256"
        }
      ],
      "name": "addItem",
      "outputs": [],
      "payable": false,
      "stateMutability": "nonpayable",
      "type": "function",
      "signature": "0xdc0dd677"
    },
    {
      "constant": false,
      "inputs": [
        {
          "name": "_sku",
          "type": "uint256"
        },
        {
          "name": "_storeID",
          "type": "uint256"
        }
      ],
      "name": "deleteItem",
      "outputs": [],
      "payable": false,
      "stateMutability": "nonpayable",
      "type": "function",
      "signature": "0x618a7e1d"
    },
    {
      "constant": false,
      "inputs": [
        {
          "name": "_sku",
          "type": "uint256"
        },
        {
          "name": "_quantity",
          "type": "uint256"
        },
        {
          "name": "_storeID",
          "type": "uint256"
        }
      ],
      "name": "buyItem",
      "outputs": [],
      "payable": true,
      "stateMutability": "payable",
      "type": "function",
      "signature": "0x1f6a8318"
    },
    {
      "constant": false,
      "inputs": [
        {
          "name": "_storeID",
          "type": "uint256"
        },
        {
          "name": "amountToWithdraw",
          "type": "uint256"
        }
      ],
      "name": "withdrawStoreBalance",
      "outputs": [],
      "payable": true,
      "stateMutability": "payable",
      "type": "function",
      "signature": "0x8d217ad0"
    },
    {
      "constant": true,
      "inputs": [
        {
          "name": "_sku",
          "type": "uint256"
        },
        {
          "name": "_storeID",
          "type": "uint256"
        }
      ],
      "name": "fetchItem",
      "outputs": [
        {
          "name": "name",
          "type": "string"
        },
        {
          "name": "sku",
          "type": "uint256"
        },
        {
          "name": "price",
          "type": "uint256"
        }
      ],
      "payable": false,
      "stateMutability": "view",
      "type": "function",
      "signature": "0xd5e57da6"
    },
    {
      "constant": false,
      "inputs": [
        {
          "name": "_name",
          "type": "string"
        },
        {
          "name": "_storeOwner",
          "type": "address"
        },
        {
          "name": "_storeSkuCount",
          "type": "uint256"
        }
      ],
      "name": "addStore",
      "outputs": [],
      "payable": false,
      "stateMutability": "nonpayable",
      "type": "function",
      "signature": "0x41e35598"
    },
    {
      "constant": false,
      "inputs": [],
      "name": "freezeMarket",
      "outputs": [],
      "payable": false,
      "stateMutability": "nonpayable",
      "type": "function",
      "signature": "0xdf2e5066"
    },
    {
      "constant": false,
      "inputs": [],
      "name": "resumeMarket",
      "outputs": [],
      "payable": false,
      "stateMutability": "nonpayable",
      "type": "function",
      "signature": "0x9319106b"
    },
    {
      "constant": false,
      "inputs": [],
      "name": "withdrawAll",
      "outputs": [],
      "payable": false,
      "stateMutability": "nonpayable",
      "type": "function",
      "signature": "0x853828b6"
    },
    {
      "constant": false,
      "inputs": [
        {
          "name": "_user",
          "type": "address"
        }
      ],
      "name": "addAdmin",
      "outputs": [],
      "payable": false,
      "stateMutability": "nonpayable",
      "type": "function",
      "signature": "0x70480275"
    },
    {
      "constant": false,
      "inputs": [
        {
          "name": "_user",
          "type": "address"
        }
      ],
      "name": "removeAdmin",
      "outputs": [],
      "payable": false,
      "stateMutability": "nonpayable",
      "type": "function",
      "signature": "0x1785f53c"
    },
    {
      "constant": true,
      "inputs": [
        {
          "name": "_storeID",
          "type": "uint256"
        }
      ],
      "name": "getStore",
      "outputs": [
        {
          "name": "name",
          "type": "string"
        },
        {
          "name": "owner",
          "type": "address"
        }
      ],
      "payable": false,
      "stateMutability": "view",
      "type": "function",
      "signature": "0x83403120"
    },
    {
      "constant": true,
      "inputs": [
        {
          "name": "_storeID",
          "type": "uint256"
        }
      ],
      "name": "getStoreBalance",
      "outputs": [
        {
          "name": "",
          "type": "uint256"
        }
      ],
      "payable": false,
      "stateMutability": "view",
      "type": "function",
      "signature": "0x7b410393"
    }
  ],
  "bytecode": "0x6080604052600060015560006002556000600360006101000a81548160ff02191690831515021790555034801561003557600080fd5b50336000806101000a81548173ffffffffffffffffffffffffffffffffffffffff021916908373ffffffffffffffffffffffffffffffffffffffff160217905550612256806100856000396000f3fe608060405260043610610133576000357c0100000000000000000000000000000000000000000000000000000000900463ffffffff16806307de9735146101455780631785f53c1461020f5780631f6a83181461026057806324d7806c146102a25780632c203edd1461030b57806341e355981461036b578063618a7e1d1461045d57806363a599a4146104a257806370480275146104b957806375f12b211461050a5780637b410393146105395780638340312014610588578063853828b61461066f57806386d1a69f146106865780638d217ad01461069d5780639319106b146106d557806398e8bd97146106ec578063c806b27514610717578063d5e57da614610766578063dc0dd67714610832578063df2e506614610918578063e8a59cd81461092f578063f2fde38b14610a24575b34801561013f57600080fd5b50600080fd5b34801561015157600080fd5b506101946004803603602081101561016857600080fd5b81019080803573ffffffffffffffffffffffffffffffffffffffff169060200190929190505050610a75565b6040518080602001828103825283818151815260200191508051906020019080838360005b838110156101d45780820151818401526020810190506101b9565b50505050905090810190601f1680156102015780820380516001836020036101000a031916815260200191505b509250505060405180910390f35b34801561021b57600080fd5b5061025e6004803603602081101561023257600080fd5b81019080803573ffffffffffffffffffffffffffffffffffffffff169060200190929190505050610b2b565b005b6102a06004803603606081101561027657600080fd5b81019080803590602001909291908035906020019092919080359060200190929190505050610c56565b005b3480156102ae57600080fd5b506102f1600480360360208110156102c557600080fd5b81019080803573ffffffffffffffffffffffffffffffffffffffff169060200190929190505050610ea8565b604051808215151515815260200191505060405180910390f35b34801561031757600080fd5b5061034e6004803603604081101561032e57600080fd5b810190808035906020019092919080359060200190929190505050610ec8565b604051808381526020018281526020019250505060405180910390f35b34801561037757600080fd5b5061045b6004803603606081101561038e57600080fd5b81019080803590602001906401000000008111156103ab57600080fd5b8201836020820111156103bd57600080fd5b803590602001918460018302840111640100000000831117156103df57600080fd5b91908080601f016020809104026020016040519081016040528093929190818152602001838380828437600081840152601f19601f820116905080830192505050505050509192919290803573ffffffffffffffffffffffffffffffffffffffff16906020019092919080359060200190929190505050610f78565b005b34801561046957600080fd5b506104a06004803603604081101561048057600080fd5b8101908080359060200190929190803590602001909291905050506111c0565b005b3480156104ae57600080fd5b506104b76112d8565b005b3480156104c557600080fd5b50610508600480360360208110156104dc57600080fd5b81019080803573ffffffffffffffffffffffffffffffffffffffff16906020019092919050505061134b565b005b34801561051657600080fd5b5061051f611476565b604051808215151515815260200191505060405180910390f35b34801561054557600080fd5b506105726004803603602081101561055c57600080fd5b8101908080359060200190929190505050611489565b6040518082815260200191505060405180910390f35b34801561059457600080fd5b506105c1600480360360208110156105ab57600080fd5b81019080803590602001909291905050506114bf565b60405180806020018373ffffffffffffffffffffffffffffffffffffffff1673ffffffffffffffffffffffffffffffffffffffff168152602001828103825284818151815260200191508051906020019080838360005b83811015610633578082015181840152602081019050610618565b50505050905090810190601f1680156106605780820380516001836020036101000a031916815260200191505b50935050505060405180910390f35b34801561067b57600080fd5b5061068461168e565b005b34801561069257600080fd5b5061069b61177b565b005b6106d3600480360360408110156106b357600080fd5b810190808035906020019092919080359060200190929190505050611803565b005b3480156106e157600080fd5b506106ea6119ad565b005b3480156106f857600080fd5b50610701611a20565b6040518082815260200191505060405180910390f35b34801561072357600080fd5b506107506004803603602081101561073a57600080fd5b8101908080359060200190929190505050611a2a565b6040518082815260200191505060405180910390f35b34801561077257600080fd5b506107a96004803603604081101561078957600080fd5b810190808035906020019092919080359060200190929190505050611a4a565b6040518080602001848152602001838152602001828103825285818151815260200191508051906020019080838360005b838110156107f55780820151818401526020810190506107da565b50505050905090810190601f1680156108225780820380516001836020036101000a031916815260200191505b5094505050505060405180910390f35b34801561083e57600080fd5b506109166004803603608081101561085557600080fd5b810190808035906020019064010000000081111561087257600080fd5b82018360208201111561088457600080fd5b803590602001918460018302840111640100000000831117156108a657600080fd5b91908080601f016020809104026020016040519081016040528093929190818152602001838380828437600081840152601f19601f820116905080830192505050505050509192919290803590602001909291908035906020019092919080359060200190929190505050611b7f565b005b34801561092457600080fd5b5061092d611e30565b005b34801561093b57600080fd5b506109686004803603602081101561095257600080fd5b8101908080359060200190929190505050611ea3565b604051808573ffffffffffffffffffffffffffffffffffffffff1673ffffffffffffffffffffffffffffffffffffffff16815260200180602001848152602001838152602001828103825285818151815260200191508051906020019080838360005b838110156109e65780820151818401526020810190506109cb565b50505050905090810190601f168015610a135780820380516001836020036101000a031916815260200191505b509550505050505060405180910390f35b348015610a3057600080fd5b50610a7360048036036020811015610a4757600080fd5b81019080803573ffffffffffffffffffffffffffffffffffffffff169060200190929190505050611f8b565b005b6006602052806000526040600020600091509050806000018054600181600116156101000203166002900480601f016020809104026020016040519081016040528092919081815260200182805460018160011615610100020316600290048015610b215780601f10610af657610100808354040283529160200191610b21565b820191906000526020600020905b815481529060010190602001808311610b0457829003601f168201915b5050505050905081565b6000809054906101000a900473ffffffffffffffffffffffffffffffffffffffff1673ffffffffffffffffffffffffffffffffffffffff163373ffffffffffffffffffffffffffffffffffffffff161415610c5357600060149054906101000a900460ff161515610c52576000600560008373ffffffffffffffffffffffffffffffffffffffff1673ffffffffffffffffffffffffffffffffffffffff16815260200190815260200160002060006101000a81548160ff0219169083151502179055507f44d6d25963f097ad14f29f06854a01f575648a1ef82f30e562ccd3889717e33981604051808273ffffffffffffffffffffffffffffffffffffffff1673ffffffffffffffffffffffffffffffffffffffff16815260200191505060405180910390a15b5b50565b600060149054906101000a900460ff161515610ea357610ca0600460008381526020019081526020016000206004016000858152602001908152602001600020600201548361205b565b803410151515610caf57600080fd5b6000610ce5600460008581526020019081526020016000206004016000878152602001908152602001600020600201548561205b565b9050610d1b6004600085815260200190815260200160002060040160008781526020019081526020016000206001015485612099565b60046000858152602001908152602001600020600401600087815260200190815260200160002060010181905550610d696004600085815260200190815260200160002060030154826120bb565b6004600085815260200190815260200160002060030181905550610df1600660003373ffffffffffffffffffffffffffffffffffffffff1673ffffffffffffffffffffffffffffffffffffffff1681526020019081526020016000206001016000858152602001908152602001600020600087815260200190815260200160002054856120bb565b600660003373ffffffffffffffffffffffffffffffffffffffff1673ffffffffffffffffffffffffffffffffffffffff16815260200190815260200160002060010160008581526020019081526020016000206000878152602001908152602001600020819055507fb94ad6b739f9bef4a950b4e9ce06c0f6f6bcfc31bea46cc96187fb7cd1066cab85848660405180848152602001838152602001828152602001935050505060405180910390a150505b505050565b60056020528060005260406000206000915054906101000a900460ff1681565b60008060003390506000600660008373ffffffffffffffffffffffffffffffffffffffff1673ffffffffffffffffffffffffffffffffffffffff1681526020019081526020016000206001016000878152602001908152602001600020600086815260200190815260200160002054905060006004600088815260200190815260200160002060040160008781526020019081526020016000206002015490508181945094505050509250929050565b600060149054906101000a900460ff1615156111bb57601483511115151561102e576040517f08c379a00000000000000000000000000000000000000000000000000000000081526004018080602001828103825260258152602001807f506c65617365206b656570206e616d6520756e6465722032302063686172616381526020017f687465727300000000000000000000000000000000000000000000000000000081525060400191505060405180910390fd5b82600460006002548152602001908152602001600020600101908051906020019061105a9291906120dc565b508160046000600254815260200190815260200160002060000160006101000a81548173ffffffffffffffffffffffffffffffffffffffff021916908373ffffffffffffffffffffffffffffffffffffffff16021790555080600460006002548152602001908152602001600020600201819055506110dc60025460016120bb565b6002819055507fe92ae8a235222aeb21f92971dd64a849c4ba8949f40711335f43e76f0074d2e2828483604051808473ffffffffffffffffffffffffffffffffffffffff1673ffffffffffffffffffffffffffffffffffffffff16815260200180602001838152602001828103825284818151815260200191508051906020019080838360005b8381101561117e578082015181840152602081019050611163565b50505050905090810190601f1680156111ab5780820380516001836020036101000a031916815260200191505b5094505050505060405180910390a15b505050565b33816004600082815260200190815260200160002060000160009054906101000a900473ffffffffffffffffffffffffffffffffffffffff1673ffffffffffffffffffffffffffffffffffffffff168273ffffffffffffffffffffffffffffffffffffffff1614151561123257600080fd5b600060149054906101000a900460ff1615156112d25760046000848152602001908152602001600020600401600085815260200190815260200160002060008082016000611280919061215c565b6001820160009055600282016000905550507fd2dd399ffb85e7eb11adef9ec4596e2d4f0efd88638581a6b56c14978923d4b38385604051808381526020018281526020019250505060405180910390a15b50505050565b6000809054906101000a900473ffffffffffffffffffffffffffffffffffffffff1673ffffffffffffffffffffffffffffffffffffffff163373ffffffffffffffffffffffffffffffffffffffff161415611349576001600060146101000a81548160ff0219169083151502179055505b565b600060149054906101000a900460ff161515611473576000809054906101000a900473ffffffffffffffffffffffffffffffffffffffff1673ffffffffffffffffffffffffffffffffffffffff163373ffffffffffffffffffffffffffffffffffffffff161415611472576001600560008373ffffffffffffffffffffffffffffffffffffffff1673ffffffffffffffffffffffffffffffffffffffff16815260200190815260200160002060006101000a81548160ff0219169083151502179055507f44d6d25963f097ad14f29f06854a01f575648a1ef82f30e562ccd3889717e33981604051808273ffffffffffffffffffffffffffffffffffffffff1673ffffffffffffffffffffffffffffffffffffffff16815260200191505060405180910390a15b5b50565b600360009054906101000a900460ff1681565b60008060149054906101000a900460ff1615156114ba57600460008381526020019081526020016000206003015490505b919050565b6060600082600254811115151561153e576040517f08c379a00000000000000000000000000000000000000000000000000000000081526004018080602001828103825260188152602001807f496e76616c69642053746f726549442070726f7669646564000000000000000081525060200191505060405180910390fd5b6115466121a4565b60046000868152602001908152602001600020608060405190810160405290816000820160009054906101000a900473ffffffffffffffffffffffffffffffffffffffff1673ffffffffffffffffffffffffffffffffffffffff1673ffffffffffffffffffffffffffffffffffffffff168152602001600182018054600181600116156101000203166002900480601f0160208091040260200160405190810160405280929190818152602001828054600181600116156101000203166002900480156116545780601f1061162957610100808354040283529160200191611654565b820191906000526020600020905b81548152906001019060200180831161163757829003601f168201915b5050505050815260200160028201548152602001600382015481525050905080602001518160000151819150809050935093505050915091565b6000809054906101000a900473ffffffffffffffffffffffffffffffffffffffff1673ffffffffffffffffffffffffffffffffffffffff163373ffffffffffffffffffffffffffffffffffffffff16141561177957600060149054906101000a900460ff1615611778576000809054906101000a900473ffffffffffffffffffffffffffffffffffffffff1673ffffffffffffffffffffffffffffffffffffffff166108fc3073ffffffffffffffffffffffffffffffffffffffff16319081150290604051600060405180830381858888f19350505050158015611776573d6000803e3d6000fd5b505b5b565b6000809054906101000a900473ffffffffffffffffffffffffffffffffffffffff1673ffffffffffffffffffffffffffffffffffffffff163373ffffffffffffffffffffffffffffffffffffffff16141561180157600060149054906101000a900460ff16156118005760008060146101000a81548160ff0219169083151502179055505b5b565b600060149054906101000a900460ff1615156119a95733826004600082815260200190815260200160002060000160009054906101000a900473ffffffffffffffffffffffffffffffffffffffff1673ffffffffffffffffffffffffffffffffffffffff168273ffffffffffffffffffffffffffffffffffffffff1614151561188b57600080fd5b600460008581526020019081526020016000206003015483111515156118b057600080fd5b6004600085815260200190815260200160002060000160009054906101000a900473ffffffffffffffffffffffffffffffffffffffff1673ffffffffffffffffffffffffffffffffffffffff166108fc849081150290604051600060405180830381858888f1935050505015801561192c573d6000803e3d6000fd5b5061194d600460008681526020019081526020016000206003015484612099565b60046000868152602001908152602001600020600301819055507f6a428efd7d4047ca307658bde77396d9c8e8d69db0f2bdb84b71f888706475388484604051808381526020018281526020019250505060405180910390a150505b5050565b6000809054906101000a900473ffffffffffffffffffffffffffffffffffffffff1673ffffffffffffffffffffffffffffffffffffffff163373ffffffffffffffffffffffffffffffffffffffff161415611a1e576000600360006101000a81548160ff0219169083151502179055505b565b6000600254905090565b600060046000838152602001908152602001600020600201549050919050565b6060600080600060149054906101000a900460ff161515611b7857611a6d6121e3565b60046000868152602001908152602001600020600401600087815260200190815260200160002060606040519081016040529081600082018054600181600116156101000203166002900480601f016020809104026020016040519081016040528092919081815260200182805460018160011615610100020316600290048015611b395780601f10611b0e57610100808354040283529160200191611b39565b820191906000526020600020905b815481529060010190602001808311611b1c57829003601f168201915b50505050508152602001600182015481526020016002820154815250509050806000015193508060200151925080604001519150838383935093509350505b9250925092565b33816004600082815260200190815260200160002060000160009054906101000a900473ffffffffffffffffffffffffffffffffffffffff1673ffffffffffffffffffffffffffffffffffffffff168273ffffffffffffffffffffffffffffffffffffffff16141515611bf157600080fd5b600060149054906101000a900460ff161515611e28576014865111151515611c81576040517f08c379a000000000000000000000000000000000000000000000000000000000815260040180806020018281038252601f8152602001807f506c65617365206b656570206e616d6520756e6465722032302063686172730081525060200191505060405180910390fd5b611c8e60015460016120bb565b600181905550600060046000858152602001908152602001600020600201549050866004600086815260200190815260200160002060040160008381526020019081526020016000206000019080519060200190611ced9291906120dc565b5085600460008681526020019081526020016000206004016000838152602001908152602001600020600201819055508460046000868152602001908152602001600020600401600083815260200190815260200160002060010181905550611d578160016120bb565b60046000868152602001908152602001600020600201819055507e04dadcdf342dce90d0bed1bc9d084fe3476b947f1fa7d0e9214836b8fbc0716001548589886040518085815260200184815260200180602001838152602001828103825284818151815260200191508051906020019080838360005b83811015611de9578082015181840152602081019050611dce565b50505050905090810190601f168015611e165780820380516001836020036101000a031916815260200191505b509550505050505060405180910390a1505b505050505050565b6000809054906101000a900473ffffffffffffffffffffffffffffffffffffffff1673ffffffffffffffffffffffffffffffffffffffff163373ffffffffffffffffffffffffffffffffffffffff161415611ea1576001600360006101000a81548160ff0219169083151502179055505b565b60046020528060005260406000206000915090508060000160009054906101000a900473ffffffffffffffffffffffffffffffffffffffff1690806001018054600181600116156101000203166002900480601f016020809104026020016040519081016040528092919081815260200182805460018160011615610100020316600290048015611f755780601f10611f4a57610100808354040283529160200191611f75565b820191906000526020600020905b815481529060010190602001808311611f5857829003601f168201915b5050505050908060020154908060030154905084565b6000809054906101000a900473ffffffffffffffffffffffffffffffffffffffff1673ffffffffffffffffffffffffffffffffffffffff163373ffffffffffffffffffffffffffffffffffffffff16141561205857600073ffffffffffffffffffffffffffffffffffffffff168173ffffffffffffffffffffffffffffffffffffffff1614151561205757806000806101000a81548173ffffffffffffffffffffffffffffffffffffffff021916908373ffffffffffffffffffffffffffffffffffffffff1602179055505b5b50565b60008083141561206e5760009050612093565b6000828402905082848281151561208157fe5b0414151561208e57600080fd5b809150505b92915050565b60008282111515156120aa57600080fd5b600082840390508091505092915050565b60008082840190508381101515156120d257600080fd5b8091505092915050565b828054600181600116156101000203166002900490600052602060002090601f016020900481019282601f1061211d57805160ff191683800117855561214b565b8280016001018555821561214b579182015b8281111561214a57825182559160200191906001019061212f565b5b5090506121589190612205565b5090565b50805460018160011615610100020316600290046000825580601f1061218257506121a1565b601f0160209004906000526020600020908101906121a09190612205565b5b50565b608060405190810160405280600073ffffffffffffffffffffffffffffffffffffffff1681526020016060815260200160008152602001600081525090565b6060604051908101604052806060815260200160008152602001600081525090565b61222791905b8082111561222357600081600090555060010161220b565b5090565b9056fea165627a7a723058209d9d56d7e2645ff2271561e20895c0f8fe418de157ed830b760458d8b048e1eb0029",
  "source": "pragma solidity ^0.5.0;\n\nimport \"./SafeMath.sol\";\nimport \"./Ownable.sol\";\nimport \"./Stoppable.sol\";\n\ncontract Market is Ownable, Stoppable {\n  using SafeMath for uint;\n  uint skuCount = 0;\n  uint storeCount = 0;\n  \n  // for circuit breaker\n  bool public stopped = false;\n  \n  struct User{\n    string name;\n    mapping(uint => mapping(uint => uint)) orders;\n    // storeID => itemID => quantity\n  }\n\n  struct Store {\n    address payable storeOwner;\n    string storeName;\n    uint storeSkuCount;\n    uint storeBalance;\n    mapping (uint=>Item) storeItems;\n  }\n\n\n  struct Item {\n    string name;\n    uint sku;\n    uint price;\n  }\n\n  mapping(uint => Store) public stores;\n  mapping(address => bool) public isAdmin;\n  mapping(address => User) public people;\n  event ForSale(uint _sku, uint _storeID, string _name, uint _quantity);\n  event Sold(uint _sku, uint _storeID, uint _quantity);\n  event AdminAdded(address _user);\n  event AdminRemoved(address _user);\n  event StoreAdded(address _owner, string _name, uint _skuCount);\n  event StoreRemoved(address _user);\n  event StoreBalanceWithdrawn(uint _storeID, uint balanceToWithdraw);\n  event ItemDeleted(uint _storeID, uint _sku);\n\n  modifier verifyCaller (address _address) { \n    require (msg.sender == _address); \n    _;\n  }\n\n  modifier checkStoreExistence(uint _storeID) {\n    require(_storeID <= storeCount, \"Invalid StoreID provided\");\n    _;\n  }\n\n  modifier checkOwnerOfStore(address _storeOwner, uint _storeID) {\n    // Why I removed fallback string?\n    // https://github.com/ethereum/solidity/issues/3971\n    require (_storeOwner == stores[_storeID].storeOwner);\n    _;\n  }\n\n  modifier paidEnough(uint _totalPrice) { \n    require(msg.value >= _totalPrice); \n    _;\n  }\n\n  modifier checkQuantity(uint _quantity, uint _storeID, uint _itemCode) {\n    require(_quantity <= stores[_storeID].storeItems[_itemCode].sku, \"Not sufficient quantity available\");\n    _;\n  }\n  \n  constructor() public {\n    // skuCount = 0;\n  }\n  \n  function getStoreItemCount(uint _storeID)\n    public\n    view\n    returns(uint)\n  {\n      return stores[_storeID].storeSkuCount;\n  }\n  \n  function getStoreCount()\n    public\n    view\n    returns(uint)\n  {\n      return storeCount;\n  }\n  \n  function getOrderDetails(uint _storeID, uint _itemCode)\n    public\n    view\n    returns(uint, uint)\n  {\n    address user = msg.sender;\n    uint quantity = people[user].orders[_storeID][_itemCode];\n    uint price = stores[_storeID].storeItems[_itemCode].price;\n    return(quantity, price);\n  }\n\n  function addItem(string memory _name, uint _price, uint _sku, uint _storeID) public \n    checkOwnerOfStore(msg.sender, _storeID)\n    stopInEmergency()\n  {\n    require(bytes(_name).length <= 20, \"Please keep name under 20 chars\"); // This makes sure that we don't end up using infinite gas\n    skuCount = SafeMath.add(skuCount, 1);\n    uint count = stores[_storeID].storeSkuCount; // increase overall items count\n    stores[_storeID].storeItems[count].name = _name;\n    stores[_storeID].storeItems[count].price = _price;\n    stores[_storeID].storeItems[count].sku = _sku;\n    stores[_storeID].storeSkuCount = SafeMath.add(count, 1); // increase overall items count\n    emit ForSale(skuCount, _storeID, _name, _sku);\n  }\n\n  function deleteItem(uint _sku, uint _storeID) public \n    checkOwnerOfStore(msg.sender, _storeID)\n    stopInEmergency()\n  {\n    delete stores[_storeID].storeItems[_sku];\n    emit ItemDeleted(_storeID, _sku);\n  }\n\n  function buyItem(uint _sku, uint _quantity, uint _storeID)\n    public\n    payable\n    stopInEmergency()\n    paidEnough(SafeMath.mul(stores[_storeID].storeItems[_sku].price, _quantity))\n  {\n    uint transactAmount = SafeMath.mul(stores[_storeID].storeItems[_sku].price, _quantity);\n    stores[_storeID].storeItems[_sku].sku = SafeMath.sub(stores[_storeID].storeItems[_sku].sku,  _quantity);\n    stores[_storeID].storeBalance = SafeMath.add(stores[_storeID].storeBalance, transactAmount);\n    people[msg.sender].orders[_storeID][_sku] =SafeMath.add(people[msg.sender].orders[_storeID][_sku], _quantity);\n    emit Sold(_sku, _storeID, _quantity);\n  }\n  \n  function withdrawStoreBalance(uint _storeID, uint amountToWithdraw)\n    public\n    payable\n    stopInEmergency()\n    checkOwnerOfStore(msg.sender, _storeID)\n  {\n    require(amountToWithdraw <= stores[_storeID].storeBalance);\n    stores[_storeID].storeOwner.transfer(amountToWithdraw);\n    stores[_storeID].storeBalance = SafeMath.sub(stores[_storeID].storeBalance, amountToWithdraw);\n    emit StoreBalanceWithdrawn(_storeID, amountToWithdraw);\n  }\n  \n  function fetchItem(uint _sku, uint _storeID)\n    stopInEmergency()\n    public \n    view\n    returns (string memory name, uint sku, uint price) \n  {\n    Item memory item = stores[_storeID].storeItems[_sku];\n    name = item.name;\n    sku = item.sku;\n    price = item.price;\n    return (name, sku, price);\n  }\n\n  function addStore(string memory _name, address payable _storeOwner, uint _storeSkuCount) \n    public\n    stopInEmergency()\n  {\n    require(bytes(_name).length <= 20, \"Please keep name under 20 charachters\"); // This makes sure that we don't end up using infinite gas.\n    stores[storeCount].storeName = _name;\n    stores[storeCount].storeOwner = _storeOwner;\n    stores[storeCount].storeSkuCount = _storeSkuCount;\n    storeCount = SafeMath.add(storeCount, 1);\n    emit StoreAdded(_storeOwner, _name, _storeSkuCount);\n  }\n  \n  function freezeMarket() \n    public\n    onlyOwner()\n  {\n    stopped = true;      \n  }\n  \n  function resumeMarket()\n    public\n    onlyOwner()\n  {\n    stopped = false;\n  }\n  \n  function withdrawAll() \n    public\n    onlyOwner()\n    onlyInEmergency()\n  {\n    owner.transfer(address(this).balance);\n  }\n  \n  function addAdmin(address _user)\n    public\n    stopInEmergency()\n    onlyOwner()\n  {\n    isAdmin[_user] = true;\n    emit AdminAdded(_user);\n  }\n  \n  function removeAdmin(address _user)\n    public\n    onlyOwner()\n    stopInEmergency()\n  {\n    isAdmin[_user] = false;\n    emit AdminAdded(_user);\n  }\n  \n  \n  function getStore(uint _storeID)\n    public\n    view\n    checkStoreExistence(_storeID)\n    returns(string memory name, address owner)\n  {\n    Store memory store = stores[_storeID];\n    return (store.storeName, store.storeOwner);\n  }\n  \n  function getStoreBalance(uint _storeID)\n    public\n    view\n    stopInEmergency()\n    returns(uint)\n  {\n    return stores[_storeID].storeBalance;\n  }\n\n  // If nothing is mathced do this.\n  function() external {\n    revert();\n  }\n\n}\n",
  "sourcePath": "/home/jiren/GitHub/final-project-aashutoshrathi/contracts/Market.sol",
  "compiler": {
    "name": "solc",
    "version": "0.5.0+commit.1d4f565a.Emscripten.clang"
  },
  "schemaVersion": "3.0.1",
  "updatedAt": "2019-01-28T04:02:13.751Z",
  "devdoc": {
    "methods": {}
  },
  "userdoc": {
    "methods": {}
  }
}