{
  "contractName": "Market",
  "abi": [
    {
      "constant": true,
      "inputs": [
        {
          "name": "",
          "type": "address"
        }
      ],
      "name": "people",
      "outputs": [
        {
          "name": "name",
          "type": "string"
        }
      ],
      "payable": false,
      "stateMutability": "view",
      "type": "function",
      "signature": "0x07de9735"
    },
    {
      "constant": true,
      "inputs": [
        {
          "name": "",
          "type": "address"
        }
      ],
      "name": "isAdmin",
      "outputs": [
        {
          "name": "",
          "type": "bool"
        }
      ],
      "payable": false,
      "stateMutability": "view",
      "type": "function",
      "signature": "0x24d7806c"
    },
    {
      "constant": false,
      "inputs": [],
      "name": "emergencyStop",
      "outputs": [],
      "payable": false,
      "stateMutability": "nonpayable",
      "type": "function",
      "signature": "0x63a599a4"
    },
    {
      "constant": true,
      "inputs": [],
      "name": "stopped",
      "outputs": [
        {
          "name": "",
          "type": "bool"
        }
      ],
      "payable": false,
      "stateMutability": "view",
      "type": "function",
      "signature": "0x75f12b21"
    },
    {
      "constant": false,
      "inputs": [],
      "name": "release",
      "outputs": [],
      "payable": false,
      "stateMutability": "nonpayable",
      "type": "function",
      "signature": "0x86d1a69f"
    },
    {
      "constant": true,
      "inputs": [
        {
          "name": "",
          "type": "uint256"
        }
      ],
      "name": "stores",
      "outputs": [
        {
          "name": "storeOwner",
          "type": "address"
        },
        {
          "name": "storeName",
          "type": "string"
        },
        {
          "name": "storeSkuCount",
          "type": "uint256"
        },
        {
          "name": "balance",
          "type": "uint256"
        }
      ],
      "payable": false,
      "stateMutability": "view",
      "type": "function",
      "signature": "0xe8a59cd8"
    },
    {
      "constant": false,
      "inputs": [
        {
          "name": "newOwner",
          "type": "address"
        }
      ],
      "name": "transferOwnership",
      "outputs": [],
      "payable": false,
      "stateMutability": "nonpayable",
      "type": "function",
      "signature": "0xf2fde38b"
    },
    {
      "inputs": [],
      "payable": false,
      "stateMutability": "nonpayable",
      "type": "constructor",
      "signature": "constructor"
    },
    {
      "payable": false,
      "stateMutability": "nonpayable",
      "type": "fallback"
    },
    {
      "anonymous": false,
      "inputs": [
        {
          "indexed": false,
          "name": "_sku",
          "type": "uint256"
        },
        {
          "indexed": false,
          "name": "_storeID",
          "type": "uint256"
        },
        {
          "indexed": false,
          "name": "_name",
          "type": "string"
        },
        {
          "indexed": false,
          "name": "_quantity",
          "type": "uint256"
        }
      ],
      "name": "ForSale",
      "type": "event",
      "signature": "0x0004dadcdf342dce90d0bed1bc9d084fe3476b947f1fa7d0e9214836b8fbc071"
    },
    {
      "anonymous": false,
      "inputs": [
        {
          "indexed": false,
          "name": "_sku",
          "type": "uint256"
        },
        {
          "indexed": false,
          "name": "_storeID",
          "type": "uint256"
        },
        {
          "indexed": false,
          "name": "_quantity",
          "type": "uint256"
        }
      ],
      "name": "Sold",
      "type": "event",
      "signature": "0xb94ad6b739f9bef4a950b4e9ce06c0f6f6bcfc31bea46cc96187fb7cd1066cab"
    },
    {
      "anonymous": false,
      "inputs": [
        {
          "indexed": false,
          "name": "_user",
          "type": "address"
        }
      ],
      "name": "AdminAdded",
      "type": "event",
      "signature": "0x44d6d25963f097ad14f29f06854a01f575648a1ef82f30e562ccd3889717e339"
    },
    {
      "anonymous": false,
      "inputs": [
        {
          "indexed": false,
          "name": "_user",
          "type": "address"
        }
      ],
      "name": "AdminRemoved",
      "type": "event",
      "signature": "0xa3b62bc36326052d97ea62d63c3d60308ed4c3ea8ac079dd8499f1e9c4f80c0f"
    },
    {
      "anonymous": false,
      "inputs": [
        {
          "indexed": false,
          "name": "_owner",
          "type": "address"
        },
        {
          "indexed": false,
          "name": "_name",
          "type": "string"
        },
        {
          "indexed": false,
          "name": "_skuCount",
          "type": "uint256"
        }
      ],
      "name": "StoreAdded",
      "type": "event",
      "signature": "0xe92ae8a235222aeb21f92971dd64a849c4ba8949f40711335f43e76f0074d2e2"
    },
    {
      "anonymous": false,
      "inputs": [
        {
          "indexed": false,
          "name": "_user",
          "type": "address"
        }
      ],
      "name": "StoreRemoved",
      "type": "event",
      "signature": "0x8a3674246878227c5067d2b007a4bacdcade1cc2e8528c08c068d1987e99119c"
    },
    {
      "anonymous": false,
      "inputs": [
        {
          "indexed": false,
          "name": "_storeID",
          "type": "uint256"
        },
        {
          "indexed": false,
          "name": "balanceToWithdraw",
          "type": "uint256"
        }
      ],
      "name": "StoreBalanceWithdrawn",
      "type": "event",
      "signature": "0x6a428efd7d4047ca307658bde77396d9c8e8d69db0f2bdb84b71f88870647538"
    },
    {
      "anonymous": false,
      "inputs": [
        {
          "indexed": false,
          "name": "_storeID",
          "type": "uint256"
        },
        {
          "indexed": false,
          "name": "_sku",
          "type": "uint256"
        }
      ],
      "name": "ItemDeleted",
      "type": "event",
      "signature": "0xd2dd399ffb85e7eb11adef9ec4596e2d4f0efd88638581a6b56c14978923d4b3"
    },
    {
      "constant": true,
      "inputs": [
        {
          "name": "_storeID",
          "type": "uint256"
        }
      ],
      "name": "getStoreItemCount",
      "outputs": [
        {
          "name": "",
          "type": "uint256"
        }
      ],
      "payable": false,
      "stateMutability": "view",
      "type": "function",
      "signature": "0xc806b275"
    },
    {
      "constant": true,
      "inputs": [],
      "name": "getStoreCount",
      "outputs": [
        {
          "name": "",
          "type": "uint256"
        }
      ],
      "payable": false,
      "stateMutability": "view",
      "type": "function",
      "signature": "0x98e8bd97"
    },
    {
      "constant": false,
      "inputs": [
        {
          "name": "_name",
          "type": "string"
        },
        {
          "name": "_price",
          "type": "uint256"
        },
        {
          "name": "_sku",
          "type": "uint256"
        },
        {
          "name": "_storeID",
          "type": "uint256"
        }
      ],
      "name": "addItem",
      "outputs": [],
      "payable": false,
      "stateMutability": "nonpayable",
      "type": "function",
      "signature": "0xdc0dd677"
    },
    {
      "constant": false,
      "inputs": [
        {
          "name": "_sku",
          "type": "uint256"
        },
        {
          "name": "_storeID",
          "type": "uint256"
        }
      ],
      "name": "deleteItem",
      "outputs": [],
      "payable": false,
      "stateMutability": "nonpayable",
      "type": "function",
      "signature": "0x618a7e1d"
    },
    {
      "constant": false,
      "inputs": [
        {
          "name": "_sku",
          "type": "uint256"
        },
        {
          "name": "_quantity",
          "type": "uint256"
        },
        {
          "name": "_storeID",
          "type": "uint256"
        }
      ],
      "name": "buyItem",
      "outputs": [],
      "payable": true,
      "stateMutability": "payable",
      "type": "function",
      "signature": "0x1f6a8318"
    },
    {
      "constant": false,
      "inputs": [
        {
          "name": "_storeID",
          "type": "uint256"
        },
        {
          "name": "amountToWithdraw",
          "type": "uint256"
        }
      ],
      "name": "withdrawStoreBalance",
      "outputs": [],
      "payable": true,
      "stateMutability": "payable",
      "type": "function",
      "signature": "0x8d217ad0"
    },
    {
      "constant": true,
      "inputs": [
        {
          "name": "_sku",
          "type": "uint256"
        },
        {
          "name": "_storeID",
          "type": "uint256"
        }
      ],
      "name": "fetchItem",
      "outputs": [
        {
          "name": "name",
          "type": "string"
        },
        {
          "name": "sku",
          "type": "uint256"
        },
        {
          "name": "price",
          "type": "uint256"
        }
      ],
      "payable": false,
      "stateMutability": "view",
      "type": "function",
      "signature": "0xd5e57da6"
    },
    {
      "constant": false,
      "inputs": [
        {
          "name": "_name",
          "type": "string"
        },
        {
          "name": "_storeOwner",
          "type": "address"
        },
        {
          "name": "_storeSkuCount",
          "type": "uint256"
        }
      ],
      "name": "addStore",
      "outputs": [],
      "payable": false,
      "stateMutability": "nonpayable",
      "type": "function",
      "signature": "0x41e35598"
    },
    {
      "constant": false,
      "inputs": [],
      "name": "freezeMarket",
      "outputs": [],
      "payable": false,
      "stateMutability": "nonpayable",
      "type": "function",
      "signature": "0xdf2e5066"
    },
    {
      "constant": false,
      "inputs": [],
      "name": "resumeMarket",
      "outputs": [],
      "payable": false,
      "stateMutability": "nonpayable",
      "type": "function",
      "signature": "0x9319106b"
    },
    {
      "constant": false,
      "inputs": [],
      "name": "withdrawAll",
      "outputs": [],
      "payable": false,
      "stateMutability": "nonpayable",
      "type": "function",
      "signature": "0x853828b6"
    },
    {
      "constant": false,
      "inputs": [
        {
          "name": "_user",
          "type": "address"
        }
      ],
      "name": "addAdmin",
      "outputs": [],
      "payable": false,
      "stateMutability": "nonpayable",
      "type": "function",
      "signature": "0x70480275"
    },
    {
      "constant": false,
      "inputs": [
        {
          "name": "_user",
          "type": "address"
        }
      ],
      "name": "removeAdmin",
      "outputs": [],
      "payable": false,
      "stateMutability": "nonpayable",
      "type": "function",
      "signature": "0x1785f53c"
    },
    {
      "constant": true,
      "inputs": [
        {
          "name": "_storeID",
          "type": "uint256"
        }
      ],
      "name": "getStore",
      "outputs": [
        {
          "name": "name",
          "type": "string"
        },
        {
          "name": "owner",
          "type": "address"
        }
      ],
      "payable": false,
      "stateMutability": "view",
      "type": "function",
      "signature": "0x83403120"
    },
    {
      "constant": true,
      "inputs": [
        {
          "name": "_storeID",
          "type": "uint256"
        }
      ],
      "name": "getStoreBalance",
      "outputs": [
        {
          "name": "",
          "type": "uint256"
        }
      ],
      "payable": false,
      "stateMutability": "view",
      "type": "function",
      "signature": "0x7b410393"
    }
  ],
  "bytecode": "0x6080604052600060015560006002556000600360006101000a81548160ff02191690831515021790555034801561003557600080fd5b50336000806101000a81548173ffffffffffffffffffffffffffffffffffffffff021916908373ffffffffffffffffffffffffffffffffffffffff1602179055506123eb806100856000396000f3fe608060405260043610610128576000357c0100000000000000000000000000000000000000000000000000000000900463ffffffff16806307de97351461013a5780631785f53c146102045780631f6a83181461025557806324d7806c1461029757806341e3559814610300578063618a7e1d146103f257806363a599a414610437578063704802751461044e57806375f12b211461049f5780637b410393146104ce578063834031201461051d578063853828b61461060457806386d1a69f1461061b5780638d217ad0146106325780639319106b1461066a57806398e8bd9714610681578063c806b275146106ac578063d5e57da6146106fb578063dc0dd677146107c7578063df2e5066146108ad578063e8a59cd8146108c4578063f2fde38b146109b9575b34801561013457600080fd5b50600080fd5b34801561014657600080fd5b506101896004803603602081101561015d57600080fd5b81019080803573ffffffffffffffffffffffffffffffffffffffff169060200190929190505050610a0a565b6040518080602001828103825283818151815260200191508051906020019080838360005b838110156101c95780820151818401526020810190506101ae565b50505050905090810190601f1680156101f65780820380516001836020036101000a031916815260200191505b509250505060405180910390f35b34801561021057600080fd5b506102536004803603602081101561022757600080fd5b81019080803573ffffffffffffffffffffffffffffffffffffffff169060200190929190505050610ac0565b005b6102956004803603606081101561026b57600080fd5b81019080803590602001909291908035906020019092919080359060200190929190505050610beb565b005b3480156102a357600080fd5b506102e6600480360360208110156102ba57600080fd5b81019080803573ffffffffffffffffffffffffffffffffffffffff169060200190929190505050610e3d565b604051808215151515815260200191505060405180910390f35b34801561030c57600080fd5b506103f06004803603606081101561032357600080fd5b810190808035906020019064010000000081111561034057600080fd5b82018360208201111561035257600080fd5b8035906020019184600183028401116401000000008311171561037457600080fd5b91908080601f016020809104026020016040519081016040528093929190818152602001838380828437600081840152601f19601f820116905080830192505050505050509192919290803573ffffffffffffffffffffffffffffffffffffffff16906020019092919080359060200190929190505050610e5d565b005b3480156103fe57600080fd5b506104356004803603604081101561041557600080fd5b8101908080359060200190929190803590602001909291905050506110a5565b005b34801561044357600080fd5b5061044c61124c565b005b34801561045a57600080fd5b5061049d6004803603602081101561047157600080fd5b81019080803573ffffffffffffffffffffffffffffffffffffffff1690602001909291905050506112bf565b005b3480156104ab57600080fd5b506104b46113ea565b604051808215151515815260200191505060405180910390f35b3480156104da57600080fd5b50610507600480360360208110156104f157600080fd5b81019080803590602001909291905050506113fd565b6040518082815260200191505060405180910390f35b34801561052957600080fd5b506105566004803603602081101561054057600080fd5b8101908080359060200190929190505050611536565b60405180806020018373ffffffffffffffffffffffffffffffffffffffff1673ffffffffffffffffffffffffffffffffffffffff168152602001828103825284818151815260200191508051906020019080838360005b838110156105c85780820151818401526020810190506105ad565b50505050905090810190601f1680156105f55780820380516001836020036101000a031916815260200191505b50935050505060405180910390f35b34801561061057600080fd5b50610619611705565b005b34801561062757600080fd5b506106306117f2565b005b6106686004803603604081101561064857600080fd5b81019080803590602001909291908035906020019092919050505061187a565b005b34801561067657600080fd5b5061067f611ab3565b005b34801561068d57600080fd5b50610696611b26565b6040518082815260200191505060405180910390f35b3480156106b857600080fd5b506106e5600480360360208110156106cf57600080fd5b8101908080359060200190929190505050611b30565b6040518082815260200191505060405180910390f35b34801561070757600080fd5b5061073e6004803603604081101561071e57600080fd5b810190808035906020019092919080359060200190929190505050611b50565b6040518080602001848152602001838152602001828103825285818151815260200191508051906020019080838360005b8381101561078a57808201518184015260208101905061076f565b50505050905090810190601f1680156107b75780820380516001836020036101000a031916815260200191505b5094505050505060405180910390f35b3480156107d357600080fd5b506108ab600480360360808110156107ea57600080fd5b810190808035906020019064010000000081111561080757600080fd5b82018360208201111561081957600080fd5b8035906020019184600183028401116401000000008311171561083b57600080fd5b91908080601f016020809104026020016040519081016040528093929190818152602001838380828437600081840152601f19601f820116905080830192505050505050509192919290803590602001909291908035906020019092919080359060200190929190505050611c85565b005b3480156108b957600080fd5b506108c2611fc5565b005b3480156108d057600080fd5b506108fd600480360360208110156108e757600080fd5b8101908080359060200190929190505050612038565b604051808573ffffffffffffffffffffffffffffffffffffffff1673ffffffffffffffffffffffffffffffffffffffff16815260200180602001848152602001838152602001828103825285818151815260200191508051906020019080838360005b8381101561097b578082015181840152602081019050610960565b50505050905090810190601f1680156109a85780820380516001836020036101000a031916815260200191505b509550505050505060405180910390f35b3480156109c557600080fd5b50610a08600480360360208110156109dc57600080fd5b81019080803573ffffffffffffffffffffffffffffffffffffffff169060200190929190505050612120565b005b6006602052806000526040600020600091509050806000018054600181600116156101000203166002900480601f016020809104026020016040519081016040528092919081815260200182805460018160011615610100020316600290048015610ab65780601f10610a8b57610100808354040283529160200191610ab6565b820191906000526020600020905b815481529060010190602001808311610a9957829003601f168201915b5050505050905081565b6000809054906101000a900473ffffffffffffffffffffffffffffffffffffffff1673ffffffffffffffffffffffffffffffffffffffff163373ffffffffffffffffffffffffffffffffffffffff161415610be857600060149054906101000a900460ff161515610be7576000600560008373ffffffffffffffffffffffffffffffffffffffff1673ffffffffffffffffffffffffffffffffffffffff16815260200190815260200160002060006101000a81548160ff0219169083151502179055507f44d6d25963f097ad14f29f06854a01f575648a1ef82f30e562ccd3889717e33981604051808273ffffffffffffffffffffffffffffffffffffffff1673ffffffffffffffffffffffffffffffffffffffff16815260200191505060405180910390a15b5b50565b600060149054906101000a900460ff161515610e3857610c3560046000838152602001908152602001600020600401600085815260200190815260200160002060020154836121f0565b803410151515610c4457600080fd5b6000610c7a60046000858152602001908152602001600020600401600087815260200190815260200160002060020154856121f0565b9050610cb0600460008581526020019081526020016000206004016000878152602001908152602001600020600101548561222e565b60046000858152602001908152602001600020600401600087815260200190815260200160002060010181905550610cfe600460008581526020019081526020016000206003015482612250565b6004600085815260200190815260200160002060030181905550610d86600660003373ffffffffffffffffffffffffffffffffffffffff1673ffffffffffffffffffffffffffffffffffffffff168152602001908152602001600020600101600085815260200190815260200160002060008781526020019081526020016000205485612250565b600660003373ffffffffffffffffffffffffffffffffffffffff1673ffffffffffffffffffffffffffffffffffffffff16815260200190815260200160002060010160008581526020019081526020016000206000878152602001908152602001600020819055507fb94ad6b739f9bef4a950b4e9ce06c0f6f6bcfc31bea46cc96187fb7cd1066cab85848660405180848152602001838152602001828152602001935050505060405180910390a150505b505050565b60056020528060005260406000206000915054906101000a900460ff1681565b600060149054906101000a900460ff1615156110a0576014835111151515610f13576040517f08c379a00000000000000000000000000000000000000000000000000000000081526004018080602001828103825260258152602001807f506c65617365206b656570206e616d6520756e6465722032302063686172616381526020017f687465727300000000000000000000000000000000000000000000000000000081525060400191505060405180910390fd5b826004600060025481526020019081526020016000206001019080519060200190610f3f929190612271565b508160046000600254815260200190815260200160002060000160006101000a81548173ffffffffffffffffffffffffffffffffffffffff021916908373ffffffffffffffffffffffffffffffffffffffff1602179055508060046000600254815260200190815260200160002060020181905550610fc16002546001612250565b6002819055507fe92ae8a235222aeb21f92971dd64a849c4ba8949f40711335f43e76f0074d2e2828483604051808473ffffffffffffffffffffffffffffffffffffffff1673ffffffffffffffffffffffffffffffffffffffff16815260200180602001838152602001828103825284818151815260200191508051906020019080838360005b83811015611063578082015181840152602081019050611048565b50505050905090810190601f1680156110905780820380516001836020036101000a031916815260200191505b5094505050505060405180910390a15b505050565b33816004600082815260200190815260200160002060000160009054906101000a900473ffffffffffffffffffffffffffffffffffffffff1673ffffffffffffffffffffffffffffffffffffffff168273ffffffffffffffffffffffffffffffffffffffff161415156111a6576040517f08c379a00000000000000000000000000000000000000000000000000000000081526004018080602001828103825260398152602001807f596f7520646f6e2774205065726d697373696f6e7320746f2074656d7065722081526020017f7769746820736f6d656f6e6520656c736527732073746f72650000000000000081525060400191505060405180910390fd5b600060149054906101000a900460ff16151561124657600460008481526020019081526020016000206004016000858152602001908152602001600020600080820160006111f491906122f1565b6001820160009055600282016000905550507fd2dd399ffb85e7eb11adef9ec4596e2d4f0efd88638581a6b56c14978923d4b38385604051808381526020018281526020019250505060405180910390a15b50505050565b6000809054906101000a900473ffffffffffffffffffffffffffffffffffffffff1673ffffffffffffffffffffffffffffffffffffffff163373ffffffffffffffffffffffffffffffffffffffff1614156112bd576001600060146101000a81548160ff0219169083151502179055505b565b600060149054906101000a900460ff1615156113e7576000809054906101000a900473ffffffffffffffffffffffffffffffffffffffff1673ffffffffffffffffffffffffffffffffffffffff163373ffffffffffffffffffffffffffffffffffffffff1614156113e6576001600560008373ffffffffffffffffffffffffffffffffffffffff1673ffffffffffffffffffffffffffffffffffffffff16815260200190815260200160002060006101000a81548160ff0219169083151502179055507f44d6d25963f097ad14f29f06854a01f575648a1ef82f30e562ccd3889717e33981604051808273ffffffffffffffffffffffffffffffffffffffff1673ffffffffffffffffffffffffffffffffffffffff16815260200191505060405180910390a15b5b50565b600360009054906101000a900460ff1681565b60008060149054906101000a900460ff1615156115315733826004600082815260200190815260200160002060000160009054906101000a900473ffffffffffffffffffffffffffffffffffffffff1673ffffffffffffffffffffffffffffffffffffffff168273ffffffffffffffffffffffffffffffffffffffff16141515611515576040517f08c379a00000000000000000000000000000000000000000000000000000000081526004018080602001828103825260398152602001807f596f7520646f6e2774205065726d697373696f6e7320746f2074656d7065722081526020017f7769746820736f6d656f6e6520656c736527732073746f72650000000000000081525060400191505060405180910390fd5b6004600085815260200190815260200160002060030154925050505b919050565b606060008260025481111515156115b5576040517f08c379a00000000000000000000000000000000000000000000000000000000081526004018080602001828103825260188152602001807f496e76616c69642053746f726549442070726f7669646564000000000000000081525060200191505060405180910390fd5b6115bd612339565b60046000868152602001908152602001600020608060405190810160405290816000820160009054906101000a900473ffffffffffffffffffffffffffffffffffffffff1673ffffffffffffffffffffffffffffffffffffffff1673ffffffffffffffffffffffffffffffffffffffff168152602001600182018054600181600116156101000203166002900480601f0160208091040260200160405190810160405280929190818152602001828054600181600116156101000203166002900480156116cb5780601f106116a0576101008083540402835291602001916116cb565b820191906000526020600020905b8154815290600101906020018083116116ae57829003601f168201915b5050505050815260200160028201548152602001600382015481525050905080602001518160000151819150809050935093505050915091565b6000809054906101000a900473ffffffffffffffffffffffffffffffffffffffff1673ffffffffffffffffffffffffffffffffffffffff163373ffffffffffffffffffffffffffffffffffffffff1614156117f057600060149054906101000a900460ff16156117ef576000809054906101000a900473ffffffffffffffffffffffffffffffffffffffff1673ffffffffffffffffffffffffffffffffffffffff166108fc3073ffffffffffffffffffffffffffffffffffffffff16319081150290604051600060405180830381858888f193505050501580156117ed573d6000803e3d6000fd5b505b5b565b6000809054906101000a900473ffffffffffffffffffffffffffffffffffffffff1673ffffffffffffffffffffffffffffffffffffffff163373ffffffffffffffffffffffffffffffffffffffff16141561187857600060149054906101000a900460ff16156118775760008060146101000a81548160ff0219169083151502179055505b5b565b600060149054906101000a900460ff161515611aaf5733826004600082815260200190815260200160002060000160009054906101000a900473ffffffffffffffffffffffffffffffffffffffff1673ffffffffffffffffffffffffffffffffffffffff168273ffffffffffffffffffffffffffffffffffffffff16141515611991576040517f08c379a00000000000000000000000000000000000000000000000000000000081526004018080602001828103825260398152602001807f596f7520646f6e2774205065726d697373696f6e7320746f2074656d7065722081526020017f7769746820736f6d656f6e6520656c736527732073746f72650000000000000081525060400191505060405180910390fd5b600460008581526020019081526020016000206003015483111515156119b657600080fd5b6004600085815260200190815260200160002060000160009054906101000a900473ffffffffffffffffffffffffffffffffffffffff1673ffffffffffffffffffffffffffffffffffffffff166108fc849081150290604051600060405180830381858888f19350505050158015611a32573d6000803e3d6000fd5b50611a5360046000868152602001908152602001600020600301548461222e565b60046000868152602001908152602001600020600301819055507f6a428efd7d4047ca307658bde77396d9c8e8d69db0f2bdb84b71f888706475388484604051808381526020018281526020019250505060405180910390a150505b5050565b6000809054906101000a900473ffffffffffffffffffffffffffffffffffffffff1673ffffffffffffffffffffffffffffffffffffffff163373ffffffffffffffffffffffffffffffffffffffff161415611b24576000600360006101000a81548160ff0219169083151502179055505b565b6000600254905090565b600060046000838152602001908152602001600020600201549050919050565b6060600080600060149054906101000a900460ff161515611c7e57611b73612378565b60046000868152602001908152602001600020600401600087815260200190815260200160002060606040519081016040529081600082018054600181600116156101000203166002900480601f016020809104026020016040519081016040528092919081815260200182805460018160011615610100020316600290048015611c3f5780601f10611c1457610100808354040283529160200191611c3f565b820191906000526020600020905b815481529060010190602001808311611c2257829003601f168201915b50505050508152602001600182015481526020016002820154815250509050806000015193508060200151925080604001519150838383935093509350505b9250925092565b33816004600082815260200190815260200160002060000160009054906101000a900473ffffffffffffffffffffffffffffffffffffffff1673ffffffffffffffffffffffffffffffffffffffff168273ffffffffffffffffffffffffffffffffffffffff16141515611d86576040517f08c379a00000000000000000000000000000000000000000000000000000000081526004018080602001828103825260398152602001807f596f7520646f6e2774205065726d697373696f6e7320746f2074656d7065722081526020017f7769746820736f6d656f6e6520656c736527732073746f72650000000000000081525060400191505060405180910390fd5b600060149054906101000a900460ff161515611fbd576014865111151515611e16576040517f08c379a000000000000000000000000000000000000000000000000000000000815260040180806020018281038252601f8152602001807f506c65617365206b656570206e616d6520756e6465722032302063686172730081525060200191505060405180910390fd5b611e236001546001612250565b600181905550600060046000858152602001908152602001600020600201549050866004600086815260200190815260200160002060040160008381526020019081526020016000206000019080519060200190611e82929190612271565b5085600460008681526020019081526020016000206004016000838152602001908152602001600020600201819055508460046000868152602001908152602001600020600401600083815260200190815260200160002060010181905550611eec816001612250565b60046000868152602001908152602001600020600201819055507e04dadcdf342dce90d0bed1bc9d084fe3476b947f1fa7d0e9214836b8fbc0716001548589886040518085815260200184815260200180602001838152602001828103825284818151815260200191508051906020019080838360005b83811015611f7e578082015181840152602081019050611f63565b50505050905090810190601f168015611fab5780820380516001836020036101000a031916815260200191505b509550505050505060405180910390a1505b505050505050565b6000809054906101000a900473ffffffffffffffffffffffffffffffffffffffff1673ffffffffffffffffffffffffffffffffffffffff163373ffffffffffffffffffffffffffffffffffffffff161415612036576001600360006101000a81548160ff0219169083151502179055505b565b60046020528060005260406000206000915090508060000160009054906101000a900473ffffffffffffffffffffffffffffffffffffffff1690806001018054600181600116156101000203166002900480601f01602080910402602001604051908101604052809291908181526020018280546001816001161561010002031660029004801561210a5780601f106120df5761010080835404028352916020019161210a565b820191906000526020600020905b8154815290600101906020018083116120ed57829003601f168201915b5050505050908060020154908060030154905084565b6000809054906101000a900473ffffffffffffffffffffffffffffffffffffffff1673ffffffffffffffffffffffffffffffffffffffff163373ffffffffffffffffffffffffffffffffffffffff1614156121ed57600073ffffffffffffffffffffffffffffffffffffffff168173ffffffffffffffffffffffffffffffffffffffff161415156121ec57806000806101000a81548173ffffffffffffffffffffffffffffffffffffffff021916908373ffffffffffffffffffffffffffffffffffffffff1602179055505b5b50565b6000808314156122035760009050612228565b6000828402905082848281151561221657fe5b0414151561222357600080fd5b809150505b92915050565b600082821115151561223f57600080fd5b600082840390508091505092915050565b600080828401905083811015151561226757600080fd5b8091505092915050565b828054600181600116156101000203166002900490600052602060002090601f016020900481019282601f106122b257805160ff19168380011785556122e0565b828001600101855582156122e0579182015b828111156122df5782518255916020019190600101906122c4565b5b5090506122ed919061239a565b5090565b50805460018160011615610100020316600290046000825580601f106123175750612336565b601f016020900490600052602060002090810190612335919061239a565b5b50565b608060405190810160405280600073ffffffffffffffffffffffffffffffffffffffff1681526020016060815260200160008152602001600081525090565b6060604051908101604052806060815260200160008152602001600081525090565b6123bc91905b808211156123b85760008160009055506001016123a0565b5090565b9056fea165627a7a72305820aafbcfd6c88f503e0b88d4c3308f9f16e43ac7806f4f5efd8ed39728f90fac8b0029",
  "source": "pragma solidity ^0.5.0;\n\nimport \"./SafeMath.sol\";\nimport \"./Ownable.sol\";\nimport \"./Stoppable.sol\";\n\ncontract Market is Ownable, Stoppable {\n  using SafeMath for uint;\n  uint skuCount = 0;\n  uint storeCount = 0;\n  \n  // for circuit breaker\n  bool public stopped = false;\n  \n  struct User{\n    string name;\n    mapping(uint => mapping(uint => uint)) orders;\n  }\n\n  struct Store {\n    address payable storeOwner;\n    string storeName;\n    uint storeSkuCount;\n    uint balance;\n    mapping (uint=>Item) storeItems;\n  }\n\n\n  struct Item {\n    string name;\n    uint sku;\n    uint price;\n  }\n\n  mapping(uint => Store) public stores;\n  mapping(address => bool) public isAdmin;\n  mapping(address => User) public people;\n  event ForSale(uint _sku, uint _storeID, string _name, uint _quantity);\n  event Sold(uint _sku, uint _storeID, uint _quantity);\n  event AdminAdded(address _user);\n  event AdminRemoved(address _user);\n  event StoreAdded(address _owner, string _name, uint _skuCount);\n  event StoreRemoved(address _user);\n  event StoreBalanceWithdrawn(uint _storeID, uint balanceToWithdraw);\n  event ItemDeleted(uint _storeID, uint _sku);\n\n  modifier verifyCaller (address _address) { \n    require (msg.sender == _address); \n    _;\n  }\n\n  modifier checkStoreExistence(uint _storeID) {\n    require(_storeID <= storeCount, \"Invalid StoreID provided\");\n    _;\n  }\n\n  modifier checkOwnerOfStore(address _storeOwner, uint _storeID) {\n    require (_storeOwner == stores[_storeID].storeOwner, \"You don't Permissions to temper with someone else's store\");\n    _;\n  }\n\n  modifier paidEnough(uint _totalPrice) { \n    require(msg.value >= _totalPrice); \n    _;\n  }\n\n  modifier checkQuantity(uint _quantity, uint _storeID, uint _itemCode) {\n    require(_quantity <= stores[_storeID].storeItems[_itemCode].sku, \"Not sufficient quantity available\");\n    _;\n  }\n  \n  constructor() public {\n    // skuCount = 0;\n  }\n  \n  function getStoreItemCount(uint _storeID)\n    public\n    view\n    returns(uint)\n  {\n      return stores[_storeID].storeSkuCount;\n  }\n  \n  function getStoreCount()\n    public\n    view\n    returns(uint)\n  {\n      return storeCount;\n  }\n\n  function addItem(string memory _name, uint _price, uint _sku, uint _storeID) public \n    checkOwnerOfStore(msg.sender, _storeID)\n    stopInEmergency()\n  {\n    require(bytes(_name).length <= 20, \"Please keep name under 20 chars\"); // This makes sure that we don't end up using infinite gas\n    skuCount = SafeMath.add(skuCount, 1);\n    uint count = stores[_storeID].storeSkuCount; // increase overall items count\n    stores[_storeID].storeItems[count].name = _name;\n    stores[_storeID].storeItems[count].price = _price;\n    stores[_storeID].storeItems[count].sku = _sku;\n    stores[_storeID].storeSkuCount = SafeMath.add(count, 1); // increase overall items count\n    emit ForSale(skuCount, _storeID, _name, _sku);\n  }\n\n  function deleteItem(uint _sku, uint _storeID) public \n    checkOwnerOfStore(msg.sender, _storeID)\n    stopInEmergency()\n  {\n    delete stores[_storeID].storeItems[_sku];\n    emit ItemDeleted(_storeID, _sku);\n  }\n\n  function buyItem(uint _sku, uint _quantity, uint _storeID)\n    public\n    payable\n    stopInEmergency()\n    paidEnough(SafeMath.mul(stores[_storeID].storeItems[_sku].price, _quantity))\n  {\n    uint transactAmount = SafeMath.mul(stores[_storeID].storeItems[_sku].price, _quantity);\n    stores[_storeID].storeItems[_sku].sku = SafeMath.sub(stores[_storeID].storeItems[_sku].sku,  _quantity);\n    stores[_storeID].balance = SafeMath.add(stores[_storeID].balance, transactAmount);\n    people[msg.sender].orders[_storeID][_sku] =SafeMath.add(people[msg.sender].orders[_storeID][_sku], _quantity);\n    emit Sold(_sku, _storeID, _quantity);\n  }\n  \n  function withdrawStoreBalance(uint _storeID, uint amountToWithdraw)\n    public\n    payable\n    stopInEmergency()\n    checkOwnerOfStore(msg.sender, _storeID)\n  {\n    require(amountToWithdraw <= stores[_storeID].balance);\n    stores[_storeID].storeOwner.transfer(amountToWithdraw);\n    stores[_storeID].balance = SafeMath.sub(stores[_storeID].balance, amountToWithdraw);\n    emit StoreBalanceWithdrawn(_storeID, amountToWithdraw);\n  }\n  \n  function fetchItem(uint _sku, uint _storeID)\n    stopInEmergency()\n    public \n    view\n    returns (string memory name, uint sku, uint price) \n  {\n    Item memory item = stores[_storeID].storeItems[_sku];\n    name = item.name;\n    sku = item.sku;\n    price = item.price;\n    return (name, sku, price);\n  }\n\n  function addStore(string memory _name, address payable _storeOwner, uint _storeSkuCount) \n    public\n    stopInEmergency()\n  {\n    require(bytes(_name).length <= 20, \"Please keep name under 20 charachters\"); // This makes sure that we don't end up using infinite gas.\n    stores[storeCount].storeName = _name;\n    stores[storeCount].storeOwner = _storeOwner;\n    stores[storeCount].storeSkuCount = _storeSkuCount;\n    storeCount = SafeMath.add(storeCount, 1);\n    emit StoreAdded(_storeOwner, _name, _storeSkuCount);\n  }\n  \n  function freezeMarket() \n    public\n    onlyOwner()\n  {\n    stopped = true;      \n  }\n  \n  function resumeMarket()\n    public\n    onlyOwner()\n  {\n    stopped = false;\n  }\n  \n  function withdrawAll() \n    public\n    onlyOwner()\n    onlyInEmergency()\n  {\n    owner.transfer(address(this).balance);\n  }\n  \n  function addAdmin(address _user)\n    public\n    stopInEmergency()\n    onlyOwner()\n  {\n    isAdmin[_user] = true;\n    emit AdminAdded(_user);\n  }\n  \n  function removeAdmin(address _user)\n    public\n    onlyOwner()\n    stopInEmergency()\n  {\n    isAdmin[_user] = false;\n    emit AdminAdded(_user);\n  }\n  \n  \n  function getStore(uint _storeID)\n    public\n    view\n    checkStoreExistence(_storeID)\n    returns(string memory name, address owner)\n  {\n    Store memory store = stores[_storeID];\n    return (store.storeName, store.storeOwner);\n  }\n  \n  function getStoreBalance(uint _storeID)\n    public\n    view\n    stopInEmergency()\n    checkOwnerOfStore(msg.sender, _storeID)\n    returns(uint)\n  {\n    return stores[_storeID].balance;\n  }\n\n  // If nothing is mathced do this.\n  function() external {\n    revert();\n  }\n\n}\n",
  "sourcePath": "/home/jiren/GitHub/final-project-aashutoshrathi/contracts/Market.sol",
  "compiler": {
    "name": "solc",
    "version": "0.5.0+commit.1d4f565a.Emscripten.clang"
  },
  "schemaVersion": "3.0.1",
  "updatedAt": "2019-01-27T19:34:21.194Z",
  "devdoc": {
    "methods": {}
  },
  "userdoc": {
    "methods": {}
  }
}