{
  "contractName": "Market",
  "abi": [
    {
      "constant": true,
      "inputs": [
        {
          "name": "",
          "type": "address"
        }
      ],
      "name": "isAdmin",
      "outputs": [
        {
          "name": "",
          "type": "bool"
        }
      ],
      "payable": false,
      "stateMutability": "view",
      "type": "function",
      "signature": "0x24d7806c"
    },
    {
      "constant": false,
      "inputs": [],
      "name": "emergencyStop",
      "outputs": [],
      "payable": false,
      "stateMutability": "nonpayable",
      "type": "function",
      "signature": "0x63a599a4"
    },
    {
      "constant": true,
      "inputs": [],
      "name": "stopped",
      "outputs": [
        {
          "name": "",
          "type": "bool"
        }
      ],
      "payable": false,
      "stateMutability": "view",
      "type": "function",
      "signature": "0x75f12b21"
    },
    {
      "constant": false,
      "inputs": [],
      "name": "release",
      "outputs": [],
      "payable": false,
      "stateMutability": "nonpayable",
      "type": "function",
      "signature": "0x86d1a69f"
    },
    {
      "constant": true,
      "inputs": [
        {
          "name": "",
          "type": "uint256"
        }
      ],
      "name": "stores",
      "outputs": [
        {
          "name": "storeOwner",
          "type": "address"
        },
        {
          "name": "storeName",
          "type": "string"
        },
        {
          "name": "storeSkuCount",
          "type": "uint256"
        },
        {
          "name": "balance",
          "type": "uint256"
        }
      ],
      "payable": false,
      "stateMutability": "view",
      "type": "function",
      "signature": "0xe8a59cd8"
    },
    {
      "constant": false,
      "inputs": [
        {
          "name": "newOwner",
          "type": "address"
        }
      ],
      "name": "transferOwnership",
      "outputs": [],
      "payable": false,
      "stateMutability": "nonpayable",
      "type": "function",
      "signature": "0xf2fde38b"
    },
    {
      "inputs": [],
      "payable": false,
      "stateMutability": "nonpayable",
      "type": "constructor",
      "signature": "constructor"
    },
    {
      "payable": false,
      "stateMutability": "nonpayable",
      "type": "fallback"
    },
    {
      "anonymous": false,
      "inputs": [
        {
          "indexed": false,
          "name": "_sku",
          "type": "uint256"
        },
        {
          "indexed": false,
          "name": "_storeID",
          "type": "uint256"
        },
        {
          "indexed": false,
          "name": "_name",
          "type": "string"
        },
        {
          "indexed": false,
          "name": "_quantity",
          "type": "uint256"
        }
      ],
      "name": "ForSale",
      "type": "event",
      "signature": "0x0004dadcdf342dce90d0bed1bc9d084fe3476b947f1fa7d0e9214836b8fbc071"
    },
    {
      "anonymous": false,
      "inputs": [
        {
          "indexed": false,
          "name": "_sku",
          "type": "uint256"
        },
        {
          "indexed": false,
          "name": "_storeID",
          "type": "uint256"
        },
        {
          "indexed": false,
          "name": "_quantity",
          "type": "uint256"
        }
      ],
      "name": "Sold",
      "type": "event",
      "signature": "0xb94ad6b739f9bef4a950b4e9ce06c0f6f6bcfc31bea46cc96187fb7cd1066cab"
    },
    {
      "anonymous": false,
      "inputs": [
        {
          "indexed": false,
          "name": "_user",
          "type": "address"
        }
      ],
      "name": "AdminAdded",
      "type": "event",
      "signature": "0x44d6d25963f097ad14f29f06854a01f575648a1ef82f30e562ccd3889717e339"
    },
    {
      "anonymous": false,
      "inputs": [
        {
          "indexed": false,
          "name": "_user",
          "type": "address"
        }
      ],
      "name": "AdminRemoved",
      "type": "event",
      "signature": "0xa3b62bc36326052d97ea62d63c3d60308ed4c3ea8ac079dd8499f1e9c4f80c0f"
    },
    {
      "anonymous": false,
      "inputs": [
        {
          "indexed": false,
          "name": "_owner",
          "type": "address"
        },
        {
          "indexed": false,
          "name": "_name",
          "type": "string"
        },
        {
          "indexed": false,
          "name": "_skuCount",
          "type": "uint256"
        }
      ],
      "name": "StoreAdded",
      "type": "event",
      "signature": "0xe92ae8a235222aeb21f92971dd64a849c4ba8949f40711335f43e76f0074d2e2"
    },
    {
      "anonymous": false,
      "inputs": [
        {
          "indexed": false,
          "name": "_user",
          "type": "address"
        }
      ],
      "name": "StoreRemoved",
      "type": "event",
      "signature": "0x8a3674246878227c5067d2b007a4bacdcade1cc2e8528c08c068d1987e99119c"
    },
    {
      "anonymous": false,
      "inputs": [
        {
          "indexed": false,
          "name": "_storeID",
          "type": "uint256"
        },
        {
          "indexed": false,
          "name": "balanceToWithdraw",
          "type": "uint256"
        }
      ],
      "name": "StoreBalanceWithdrawn",
      "type": "event",
      "signature": "0x6a428efd7d4047ca307658bde77396d9c8e8d69db0f2bdb84b71f88870647538"
    },
    {
      "anonymous": false,
      "inputs": [
        {
          "indexed": false,
          "name": "_storeID",
          "type": "uint256"
        },
        {
          "indexed": false,
          "name": "_sku",
          "type": "uint256"
        }
      ],
      "name": "ItemDeleted",
      "type": "event",
      "signature": "0xd2dd399ffb85e7eb11adef9ec4596e2d4f0efd88638581a6b56c14978923d4b3"
    },
    {
      "constant": true,
      "inputs": [
        {
          "name": "_storeID",
          "type": "uint256"
        }
      ],
      "name": "getStoreItemCount",
      "outputs": [
        {
          "name": "",
          "type": "uint256"
        }
      ],
      "payable": false,
      "stateMutability": "view",
      "type": "function",
      "signature": "0xc806b275"
    },
    {
      "constant": true,
      "inputs": [],
      "name": "getStoreCount",
      "outputs": [
        {
          "name": "",
          "type": "uint256"
        }
      ],
      "payable": false,
      "stateMutability": "view",
      "type": "function",
      "signature": "0x98e8bd97"
    },
    {
      "constant": false,
      "inputs": [
        {
          "name": "_name",
          "type": "string"
        },
        {
          "name": "_price",
          "type": "uint256"
        },
        {
          "name": "_sku",
          "type": "uint256"
        },
        {
          "name": "_storeID",
          "type": "uint256"
        }
      ],
      "name": "addItem",
      "outputs": [],
      "payable": false,
      "stateMutability": "nonpayable",
      "type": "function",
      "signature": "0xdc0dd677"
    },
    {
      "constant": false,
      "inputs": [
        {
          "name": "_sku",
          "type": "uint256"
        },
        {
          "name": "_storeID",
          "type": "uint256"
        }
      ],
      "name": "deleteItem",
      "outputs": [],
      "payable": false,
      "stateMutability": "nonpayable",
      "type": "function",
      "signature": "0x618a7e1d"
    },
    {
      "constant": false,
      "inputs": [
        {
          "name": "_sku",
          "type": "uint256"
        },
        {
          "name": "_quantity",
          "type": "uint256"
        },
        {
          "name": "_storeID",
          "type": "uint256"
        }
      ],
      "name": "buyItem",
      "outputs": [],
      "payable": true,
      "stateMutability": "payable",
      "type": "function",
      "signature": "0x1f6a8318"
    },
    {
      "constant": false,
      "inputs": [
        {
          "name": "_storeID",
          "type": "uint256"
        },
        {
          "name": "amountToWithdraw",
          "type": "uint256"
        }
      ],
      "name": "withdrawStoreBalance",
      "outputs": [],
      "payable": true,
      "stateMutability": "payable",
      "type": "function",
      "signature": "0x8d217ad0"
    },
    {
      "constant": true,
      "inputs": [
        {
          "name": "_sku",
          "type": "uint256"
        },
        {
          "name": "_storeID",
          "type": "uint256"
        }
      ],
      "name": "fetchItem",
      "outputs": [
        {
          "name": "name",
          "type": "string"
        },
        {
          "name": "sku",
          "type": "uint256"
        },
        {
          "name": "price",
          "type": "uint256"
        },
        {
          "name": "state",
          "type": "uint256"
        }
      ],
      "payable": false,
      "stateMutability": "view",
      "type": "function",
      "signature": "0xd5e57da6"
    },
    {
      "constant": false,
      "inputs": [
        {
          "name": "_name",
          "type": "string"
        },
        {
          "name": "_storeOwner",
          "type": "address"
        },
        {
          "name": "_storeSkuCount",
          "type": "uint256"
        }
      ],
      "name": "addStore",
      "outputs": [],
      "payable": false,
      "stateMutability": "nonpayable",
      "type": "function",
      "signature": "0x41e35598"
    },
    {
      "constant": false,
      "inputs": [],
      "name": "freezeMarket",
      "outputs": [],
      "payable": false,
      "stateMutability": "nonpayable",
      "type": "function",
      "signature": "0xdf2e5066"
    },
    {
      "constant": false,
      "inputs": [],
      "name": "resumeMarket",
      "outputs": [],
      "payable": false,
      "stateMutability": "nonpayable",
      "type": "function",
      "signature": "0x9319106b"
    },
    {
      "constant": false,
      "inputs": [],
      "name": "withdrawAll",
      "outputs": [],
      "payable": false,
      "stateMutability": "nonpayable",
      "type": "function",
      "signature": "0x853828b6"
    },
    {
      "constant": false,
      "inputs": [
        {
          "name": "_user",
          "type": "address"
        }
      ],
      "name": "addAdmin",
      "outputs": [],
      "payable": false,
      "stateMutability": "nonpayable",
      "type": "function",
      "signature": "0x70480275"
    },
    {
      "constant": false,
      "inputs": [
        {
          "name": "_user",
          "type": "address"
        }
      ],
      "name": "removeAdmin",
      "outputs": [],
      "payable": false,
      "stateMutability": "nonpayable",
      "type": "function",
      "signature": "0x1785f53c"
    },
    {
      "constant": true,
      "inputs": [
        {
          "name": "_storeID",
          "type": "uint256"
        }
      ],
      "name": "getStore",
      "outputs": [
        {
          "name": "name",
          "type": "string"
        },
        {
          "name": "owner",
          "type": "address"
        }
      ],
      "payable": false,
      "stateMutability": "view",
      "type": "function",
      "signature": "0x83403120"
    },
    {
      "constant": true,
      "inputs": [
        {
          "name": "_storeID",
          "type": "uint256"
        }
      ],
      "name": "getStoreBalance",
      "outputs": [
        {
          "name": "",
          "type": "uint256"
        }
      ],
      "payable": false,
      "stateMutability": "view",
      "type": "function",
      "signature": "0x7b410393"
    }
  ],
  "bytecode": "0x6080604052600060015560006002556000600360006101000a81548160ff02191690831515021790555034801561003557600080fd5b50336000806101000a81548173ffffffffffffffffffffffffffffffffffffffff021916908373ffffffffffffffffffffffffffffffffffffffff16021790555061231b806100856000396000f3fe60806040526004361061011d576000357c0100000000000000000000000000000000000000000000000000000000900463ffffffff1680631785f53c1461012f5780631f6a83181461018057806324d7806c146101c257806341e355981461022b578063618a7e1d1461031d57806363a599a414610362578063704802751461037957806375f12b21146103ca5780637b410393146103f95780638340312014610448578063853828b61461052f57806386d1a69f146105465780638d217ad01461055d5780639319106b1461059557806398e8bd97146105ac578063c806b275146105d7578063d5e57da614610626578063dc0dd677146106f9578063df2e5066146107df578063e8a59cd8146107f6578063f2fde38b146108eb575b34801561012957600080fd5b50600080fd5b34801561013b57600080fd5b5061017e6004803603602081101561015257600080fd5b81019080803573ffffffffffffffffffffffffffffffffffffffff16906020019092919050505061093c565b005b6101c06004803603606081101561019657600080fd5b81019080803590602001909291908035906020019092919080359060200190929190505050610a67565b005b3480156101ce57600080fd5b50610211600480360360208110156101e557600080fd5b81019080803573ffffffffffffffffffffffffffffffffffffffff169060200190929190505050610cac565b604051808215151515815260200191505060405180910390f35b34801561023757600080fd5b5061031b6004803603606081101561024e57600080fd5b810190808035906020019064010000000081111561026b57600080fd5b82018360208201111561027d57600080fd5b8035906020019184600183028401116401000000008311171561029f57600080fd5b91908080601f016020809104026020016040519081016040528093929190818152602001838380828437600081840152601f19601f820116905080830192505050505050509192919290803573ffffffffffffffffffffffffffffffffffffffff16906020019092919080359060200190929190505050610ccc565b005b34801561032957600080fd5b506103606004803603604081101561034057600080fd5b810190808035906020019092919080359060200190929190505050610f6a565b005b34801561036e57600080fd5b50610377611125565b005b34801561038557600080fd5b506103c86004803603602081101561039c57600080fd5b81019080803573ffffffffffffffffffffffffffffffffffffffff169060200190929190505050611198565b005b3480156103d657600080fd5b506103df6112c3565b604051808215151515815260200191505060405180910390f35b34801561040557600080fd5b506104326004803603602081101561041c57600080fd5b81019080803590602001909291905050506112d6565b6040518082815260200191505060405180910390f35b34801561045457600080fd5b506104816004803603602081101561046b57600080fd5b810190808035906020019092919050505061140f565b60405180806020018373ffffffffffffffffffffffffffffffffffffffff1673ffffffffffffffffffffffffffffffffffffffff168152602001828103825284818151815260200191508051906020019080838360005b838110156104f35780820151818401526020810190506104d8565b50505050905090810190601f1680156105205780820380516001836020036101000a031916815260200191505b50935050505060405180910390f35b34801561053b57600080fd5b506105446115de565b005b34801561055257600080fd5b5061055b6116cb565b005b6105936004803603604081101561057357600080fd5b810190808035906020019092919080359060200190929190505050611753565b005b3480156105a157600080fd5b506105aa61198c565b005b3480156105b857600080fd5b506105c16119ff565b6040518082815260200191505060405180910390f35b3480156105e357600080fd5b50610610600480360360208110156105fa57600080fd5b8101908080359060200190929190505050611a09565b6040518082815260200191505060405180910390f35b34801561063257600080fd5b506106696004803603604081101561064957600080fd5b810190808035906020019092919080359060200190929190505050611a29565b6040518080602001858152602001848152602001838152602001828103825286818151815260200191508051906020019080838360005b838110156106bb5780820151818401526020810190506106a0565b50505050905090810190601f1680156106e85780820380516001836020036101000a031916815260200191505b509550505050505060405180910390f35b34801561070557600080fd5b506107dd6004803603608081101561071c57600080fd5b810190808035906020019064010000000081111561073957600080fd5b82018360208201111561074b57600080fd5b8035906020019184600183028401116401000000008311171561076d57600080fd5b91908080601f016020809104026020016040519081016040528093929190818152602001838380828437600081840152601f19601f820116905080830192505050505050509192919290803590602001909291908035906020019092919080359060200190929190505050611ba3565b005b3480156107eb57600080fd5b506107f4611ee3565b005b34801561080257600080fd5b5061082f6004803603602081101561081957600080fd5b8101908080359060200190929190505050611f56565b604051808573ffffffffffffffffffffffffffffffffffffffff1673ffffffffffffffffffffffffffffffffffffffff16815260200180602001848152602001838152602001828103825285818151815260200191508051906020019080838360005b838110156108ad578082015181840152602081019050610892565b50505050905090810190601f1680156108da5780820380516001836020036101000a031916815260200191505b509550505050505060405180910390f35b3480156108f757600080fd5b5061093a6004803603602081101561090e57600080fd5b81019080803573ffffffffffffffffffffffffffffffffffffffff16906020019092919050505061203e565b005b6000809054906101000a900473ffffffffffffffffffffffffffffffffffffffff1673ffffffffffffffffffffffffffffffffffffffff163373ffffffffffffffffffffffffffffffffffffffff161415610a6457600060149054906101000a900460ff161515610a63576000600560008373ffffffffffffffffffffffffffffffffffffffff1673ffffffffffffffffffffffffffffffffffffffff16815260200190815260200160002060006101000a81548160ff0219169083151502179055507f44d6d25963f097ad14f29f06854a01f575648a1ef82f30e562ccd3889717e33981604051808273ffffffffffffffffffffffffffffffffffffffff1673ffffffffffffffffffffffffffffffffffffffff16815260200191505060405180910390a15b5b50565b600060149054906101000a900460ff161515610ca757828160006003811115610a8c57fe5b60046000838152602001908152602001600020600401600084815260200190815260200160002060030160009054906101000a900460ff166003811115610acf57fe5b141515610b44576040517f08c379a00000000000000000000000000000000000000000000000000000000081526004018080602001828103825260148152602001807f4974656d206e6f7420666f722073616c65203a2800000000000000000000000081525060200191505060405180910390fd5b610b78600460008581526020019081526020016000206004016000878152602001908152602001600020600201548561210e565b803410151515610b8757600080fd5b6000610bbd600460008781526020019081526020016000206004016000898152602001908152602001600020600201548761210e565b9050610bf3600460008781526020019081526020016000206004016000898152602001908152602001600020600101548761214c565b60046000878152602001908152602001600020600401600089815260200190815260200160002060010181905550610c4160046000878152602001908152602001600020600301548261216e565b60046000878152602001908152602001600020600301819055507fb94ad6b739f9bef4a950b4e9ce06c0f6f6bcfc31bea46cc96187fb7cd1066cab87868860405180848152602001838152602001828152602001935050505060405180910390a1505050505b505050565b60056020528060005260406000206000915054906101000a900460ff1681565b600060149054906101000a900460ff161515610f65576000809054906101000a900473ffffffffffffffffffffffffffffffffffffffff1673ffffffffffffffffffffffffffffffffffffffff163373ffffffffffffffffffffffffffffffffffffffff161415610f64576014835111151515610dd7576040517f08c379a00000000000000000000000000000000000000000000000000000000081526004018080602001828103825260258152602001807f506c65617365206b656570206e616d6520756e6465722032302063686172616381526020017f687465727300000000000000000000000000000000000000000000000000000081525060400191505060405180910390fd5b826004600060025481526020019081526020016000206001019080519060200190610e0392919061218f565b508160046000600254815260200190815260200160002060000160006101000a81548173ffffffffffffffffffffffffffffffffffffffff021916908373ffffffffffffffffffffffffffffffffffffffff1602179055508060046000600254815260200190815260200160002060020181905550610e85600254600161216e565b6002819055507fe92ae8a235222aeb21f92971dd64a849c4ba8949f40711335f43e76f0074d2e2828483604051808473ffffffffffffffffffffffffffffffffffffffff1673ffffffffffffffffffffffffffffffffffffffff16815260200180602001838152602001828103825284818151815260200191508051906020019080838360005b83811015610f27578082015181840152602081019050610f0c565b50505050905090810190601f168015610f545780820380516001836020036101000a031916815260200191505b5094505050505060405180910390a15b5b505050565b33816004600082815260200190815260200160002060000160009054906101000a900473ffffffffffffffffffffffffffffffffffffffff1673ffffffffffffffffffffffffffffffffffffffff168273ffffffffffffffffffffffffffffffffffffffff1614151561106b576040517f08c379a00000000000000000000000000000000000000000000000000000000081526004018080602001828103825260398152602001807f596f7520646f6e2774205065726d697373696f6e7320746f2074656d7065722081526020017f7769746820736f6d656f6e6520656c736527732073746f72650000000000000081525060400191505060405180910390fd5b600060149054906101000a900460ff16151561111f57600460008481526020019081526020016000206004016000858152602001908152602001600020600080820160006110b9919061220f565b600182016000905560028201600090556003820160006101000a81549060ff021916905550507fd2dd399ffb85e7eb11adef9ec4596e2d4f0efd88638581a6b56c14978923d4b38385604051808381526020018281526020019250505060405180910390a15b50505050565b6000809054906101000a900473ffffffffffffffffffffffffffffffffffffffff1673ffffffffffffffffffffffffffffffffffffffff163373ffffffffffffffffffffffffffffffffffffffff161415611196576001600060146101000a81548160ff0219169083151502179055505b565b600060149054906101000a900460ff1615156112c0576000809054906101000a900473ffffffffffffffffffffffffffffffffffffffff1673ffffffffffffffffffffffffffffffffffffffff163373ffffffffffffffffffffffffffffffffffffffff1614156112bf576001600560008373ffffffffffffffffffffffffffffffffffffffff1673ffffffffffffffffffffffffffffffffffffffff16815260200190815260200160002060006101000a81548160ff0219169083151502179055507f44d6d25963f097ad14f29f06854a01f575648a1ef82f30e562ccd3889717e33981604051808273ffffffffffffffffffffffffffffffffffffffff1673ffffffffffffffffffffffffffffffffffffffff16815260200191505060405180910390a15b5b50565b600360009054906101000a900460ff1681565b60008060149054906101000a900460ff16151561140a5733826004600082815260200190815260200160002060000160009054906101000a900473ffffffffffffffffffffffffffffffffffffffff1673ffffffffffffffffffffffffffffffffffffffff168273ffffffffffffffffffffffffffffffffffffffff161415156113ee576040517f08c379a00000000000000000000000000000000000000000000000000000000081526004018080602001828103825260398152602001807f596f7520646f6e2774205065726d697373696f6e7320746f2074656d7065722081526020017f7769746820736f6d656f6e6520656c736527732073746f72650000000000000081525060400191505060405180910390fd5b6004600085815260200190815260200160002060030154925050505b919050565b6060600082600254811115151561148e576040517f08c379a00000000000000000000000000000000000000000000000000000000081526004018080602001828103825260188152602001807f496e76616c69642053746f726549442070726f7669646564000000000000000081525060200191505060405180910390fd5b611496612257565b60046000868152602001908152602001600020608060405190810160405290816000820160009054906101000a900473ffffffffffffffffffffffffffffffffffffffff1673ffffffffffffffffffffffffffffffffffffffff1673ffffffffffffffffffffffffffffffffffffffff168152602001600182018054600181600116156101000203166002900480601f0160208091040260200160405190810160405280929190818152602001828054600181600116156101000203166002900480156115a45780601f10611579576101008083540402835291602001916115a4565b820191906000526020600020905b81548152906001019060200180831161158757829003601f168201915b5050505050815260200160028201548152602001600382015481525050905080602001518160000151819150809050935093505050915091565b6000809054906101000a900473ffffffffffffffffffffffffffffffffffffffff1673ffffffffffffffffffffffffffffffffffffffff163373ffffffffffffffffffffffffffffffffffffffff1614156116c957600060149054906101000a900460ff16156116c8576000809054906101000a900473ffffffffffffffffffffffffffffffffffffffff1673ffffffffffffffffffffffffffffffffffffffff166108fc3073ffffffffffffffffffffffffffffffffffffffff16319081150290604051600060405180830381858888f193505050501580156116c6573d6000803e3d6000fd5b505b5b565b6000809054906101000a900473ffffffffffffffffffffffffffffffffffffffff1673ffffffffffffffffffffffffffffffffffffffff163373ffffffffffffffffffffffffffffffffffffffff16141561175157600060149054906101000a900460ff16156117505760008060146101000a81548160ff0219169083151502179055505b5b565b600060149054906101000a900460ff1615156119885733826004600082815260200190815260200160002060000160009054906101000a900473ffffffffffffffffffffffffffffffffffffffff1673ffffffffffffffffffffffffffffffffffffffff168273ffffffffffffffffffffffffffffffffffffffff1614151561186a576040517f08c379a00000000000000000000000000000000000000000000000000000000081526004018080602001828103825260398152602001807f596f7520646f6e2774205065726d697373696f6e7320746f2074656d7065722081526020017f7769746820736f6d656f6e6520656c736527732073746f72650000000000000081525060400191505060405180910390fd5b6004600085815260200190815260200160002060030154831115151561188f57600080fd5b6004600085815260200190815260200160002060000160009054906101000a900473ffffffffffffffffffffffffffffffffffffffff1673ffffffffffffffffffffffffffffffffffffffff166108fc849081150290604051600060405180830381858888f1935050505015801561190b573d6000803e3d6000fd5b5061192c60046000868152602001908152602001600020600301548461214c565b60046000868152602001908152602001600020600301819055507f6a428efd7d4047ca307658bde77396d9c8e8d69db0f2bdb84b71f888706475388484604051808381526020018281526020019250505060405180910390a150505b5050565b6000809054906101000a900473ffffffffffffffffffffffffffffffffffffffff1673ffffffffffffffffffffffffffffffffffffffff163373ffffffffffffffffffffffffffffffffffffffff1614156119fd576000600360006101000a81548160ff0219169083151502179055505b565b6000600254905090565b600060046000838152602001908152602001600020600201549050919050565b606060008060008060149054906101000a900460ff161515611b9a57611a4d612296565b60046000878152602001908152602001600020600401600088815260200190815260200160002060806040519081016040529081600082018054600181600116156101000203166002900480601f016020809104026020016040519081016040528092919081815260200182805460018160011615610100020316600290048015611b195780601f10611aee57610100808354040283529160200191611b19565b820191906000526020600020905b815481529060010190602001808311611afc57829003601f168201915b5050505050815260200160018201548152602001600282015481526020016003820160009054906101000a900460ff166003811115611b5457fe5b6003811115611b5f57fe5b81525050905080600001519450806020015193508060400151925080606001516003811115611b8a57fe5b9150848484849450945094509450505b92959194509250565b33816004600082815260200190815260200160002060000160009054906101000a900473ffffffffffffffffffffffffffffffffffffffff1673ffffffffffffffffffffffffffffffffffffffff168273ffffffffffffffffffffffffffffffffffffffff16141515611ca4576040517f08c379a00000000000000000000000000000000000000000000000000000000081526004018080602001828103825260398152602001807f596f7520646f6e2774205065726d697373696f6e7320746f2074656d7065722081526020017f7769746820736f6d656f6e6520656c736527732073746f72650000000000000081525060400191505060405180910390fd5b600060149054906101000a900460ff161515611edb576014865111151515611d34576040517f08c379a000000000000000000000000000000000000000000000000000000000815260040180806020018281038252601f8152602001807f506c65617365206b656570206e616d6520756e6465722032302063686172730081525060200191505060405180910390fd5b611d41600154600161216e565b600181905550600060046000858152602001908152602001600020600201549050866004600086815260200190815260200160002060040160008381526020019081526020016000206000019080519060200190611da092919061218f565b5085600460008681526020019081526020016000206004016000838152602001908152602001600020600201819055508460046000868152602001908152602001600020600401600083815260200190815260200160002060010181905550611e0a81600161216e565b60046000868152602001908152602001600020600201819055507e04dadcdf342dce90d0bed1bc9d084fe3476b947f1fa7d0e9214836b8fbc0716001548589886040518085815260200184815260200180602001838152602001828103825284818151815260200191508051906020019080838360005b83811015611e9c578082015181840152602081019050611e81565b50505050905090810190601f168015611ec95780820380516001836020036101000a031916815260200191505b509550505050505060405180910390a1505b505050505050565b6000809054906101000a900473ffffffffffffffffffffffffffffffffffffffff1673ffffffffffffffffffffffffffffffffffffffff163373ffffffffffffffffffffffffffffffffffffffff161415611f54576001600360006101000a81548160ff0219169083151502179055505b565b60046020528060005260406000206000915090508060000160009054906101000a900473ffffffffffffffffffffffffffffffffffffffff1690806001018054600181600116156101000203166002900480601f0160208091040260200160405190810160405280929190818152602001828054600181600116156101000203166002900480156120285780601f10611ffd57610100808354040283529160200191612028565b820191906000526020600020905b81548152906001019060200180831161200b57829003601f168201915b5050505050908060020154908060030154905084565b6000809054906101000a900473ffffffffffffffffffffffffffffffffffffffff1673ffffffffffffffffffffffffffffffffffffffff163373ffffffffffffffffffffffffffffffffffffffff16141561210b57600073ffffffffffffffffffffffffffffffffffffffff168173ffffffffffffffffffffffffffffffffffffffff1614151561210a57806000806101000a81548173ffffffffffffffffffffffffffffffffffffffff021916908373ffffffffffffffffffffffffffffffffffffffff1602179055505b5b50565b6000808314156121215760009050612146565b6000828402905082848281151561213457fe5b0414151561214157600080fd5b809150505b92915050565b600082821115151561215d57600080fd5b600082840390508091505092915050565b600080828401905083811015151561218557600080fd5b8091505092915050565b828054600181600116156101000203166002900490600052602060002090601f016020900481019282601f106121d057805160ff19168380011785556121fe565b828001600101855582156121fe579182015b828111156121fd5782518255916020019190600101906121e2565b5b50905061220b91906122ca565b5090565b50805460018160011615610100020316600290046000825580601f106122355750612254565b601f01602090049060005260206000209081019061225391906122ca565b5b50565b608060405190810160405280600073ffffffffffffffffffffffffffffffffffffffff1681526020016060815260200160008152602001600081525090565b608060405190810160405280606081526020016000815260200160008152602001600060038111156122c457fe5b81525090565b6122ec91905b808211156122e85760008160009055506001016122d0565b5090565b9056fea165627a7a723058205e6fb43f90b14f7cbb71ae395be20ba5162b07ec86bfdf220f66a4e63d2a72e20029",
  "source": "pragma solidity ^0.5.0;\n\nimport \"./SafeMath.sol\";\nimport \"./Ownable.sol\";\nimport \"./Stoppable.sol\";\n\ncontract Market is Ownable, Stoppable {\n  using SafeMath for uint;\n  uint skuCount = 0;\n  uint storeCount = 0;\n  \n  // for circuit breaker\n  bool public stopped = false;\n\n  struct Store {\n    address payable storeOwner;\n    string storeName;\n    uint storeSkuCount;\n    uint balance;\n    mapping (uint=>Item) storeItems;\n  }\n\n  enum State {ItemForSale, Sold, Shipped, Recieved}\n\n  struct Item {\n    string name;\n    uint sku;\n    uint price;\n    State state;\n  }\n\n  mapping(uint => Store) public stores;\n  mapping(address => bool) public isAdmin;\n\n  event ForSale(uint _sku, uint _storeID, string _name, uint _quantity);\n  event Sold(uint _sku, uint _storeID, uint _quantity);\n  event AdminAdded(address _user);\n  event AdminRemoved(address _user);\n  event StoreAdded(address _owner, string _name, uint _skuCount);\n  event StoreRemoved(address _user);\n  event StoreBalanceWithdrawn(uint _storeID, uint balanceToWithdraw);\n  event ItemDeleted(uint _storeID, uint _sku);\n\n  modifier verifyCaller (address _address) { \n    require (msg.sender == _address); \n    _;\n  }\n\n  modifier checkStoreExistence(uint _storeID) {\n    require(_storeID <= storeCount, \"Invalid StoreID provided\");\n    _;\n  }\n\n  modifier checkOwnerOfStore(address _storeOwner, uint _storeID) {\n    require (_storeOwner == stores[_storeID].storeOwner, \"You don't Permissions to temper with someone else's store\");\n    _;\n  }\n\n  modifier paidEnough(uint _totalPrice) { \n    require(msg.value >= _totalPrice); \n    _;\n  }\n\n  modifier checkQuantity(uint _quantity, uint _storeID, uint _itemCode) {\n    require(_quantity <= stores[_storeID].storeItems[_itemCode].sku, \"Not sufficient quantity available\");\n    _;\n  }\n\n  modifier ItemForSale(uint _sku, uint _storeID) {\n    require(stores[_storeID].storeItems[_sku].state == State.ItemForSale, \"Item not for sale :(\");\n    _;\n  }\n\n  modifier sold(uint _sku, uint _storeID) {\n    require(stores[_storeID].storeItems[_sku].state == State.Sold, \"Error selling item.\");\n    _;\n  }\n\n  constructor() public {\n    // skuCount = 0;\n  }\n  \n  function getStoreItemCount(uint _storeID)\n    public\n    view\n    returns(uint)\n  {\n      return stores[_storeID].storeSkuCount;\n  }\n  \n  function getStoreCount()\n    public\n    view\n    returns(uint)\n  {\n      return storeCount;\n  }\n\n  function addItem(string memory _name, uint _price, uint _sku, uint _storeID) public \n    checkOwnerOfStore(msg.sender, _storeID)\n    stopInEmergency()\n  {\n    require(bytes(_name).length <= 20, \"Please keep name under 20 chars\"); // This makes sure that we don't end up using infinite gas\n    skuCount = SafeMath.add(skuCount, 1);\n    uint count = stores[_storeID].storeSkuCount; // increase overall items count\n    stores[_storeID].storeItems[count].name = _name;\n    stores[_storeID].storeItems[count].price = _price;\n    stores[_storeID].storeItems[count].sku = _sku;\n    stores[_storeID].storeSkuCount = SafeMath.add(count, 1); // increase overall items count\n    emit ForSale(skuCount, _storeID, _name, _sku);\n  }\n\n  function deleteItem(uint _sku, uint _storeID) public \n    checkOwnerOfStore(msg.sender, _storeID)\n    stopInEmergency()\n  {\n    delete stores[_storeID].storeItems[_sku];\n    emit ItemDeleted(_storeID, _sku);\n  }\n\n  function buyItem(uint _sku, uint _quantity, uint _storeID)\n    public\n    payable\n    stopInEmergency()\n    ItemForSale(_sku, _storeID)\n    paidEnough(SafeMath.mul(stores[_storeID].storeItems[_sku].price, _quantity))\n  {\n    uint transactAmount = SafeMath.mul(stores[_storeID].storeItems[_sku].price, _quantity);\n    stores[_storeID].storeItems[_sku].sku = SafeMath.sub(stores[_storeID].storeItems[_sku].sku,  _quantity);\n    stores[_storeID].balance = SafeMath.add(stores[_storeID].balance, transactAmount);\n    emit Sold(_sku, _storeID, _quantity);\n  }\n  \n  function withdrawStoreBalance(uint _storeID, uint amountToWithdraw)\n    public\n    payable\n    stopInEmergency()\n    checkOwnerOfStore(msg.sender, _storeID)\n  {\n    require(amountToWithdraw <= stores[_storeID].balance);\n    stores[_storeID].storeOwner.transfer(amountToWithdraw);\n    stores[_storeID].balance = SafeMath.sub(stores[_storeID].balance, amountToWithdraw);\n    emit StoreBalanceWithdrawn(_storeID, amountToWithdraw);\n  }\n  \n  function fetchItem(uint _sku, uint _storeID)\n    stopInEmergency()\n    public \n    view\n    returns (string memory name, uint sku, uint price, uint state) \n  {\n    Item memory item = stores[_storeID].storeItems[_sku];\n    name = item.name;\n    sku = item.sku;\n    price = item.price;\n    state = uint(item.state);\n    return (name, sku, price, state);\n  }\n\n  function addStore(string memory _name, address payable _storeOwner, uint _storeSkuCount) \n    public\n    stopInEmergency()\n    onlyOwner()\n  {\n    require(bytes(_name).length <= 20, \"Please keep name under 20 charachters\"); // This makes sure that we don't end up using infinite gas.\n    stores[storeCount].storeName = _name;\n    stores[storeCount].storeOwner = _storeOwner;\n    stores[storeCount].storeSkuCount = _storeSkuCount;\n    storeCount = SafeMath.add(storeCount, 1);\n    emit StoreAdded(_storeOwner, _name, _storeSkuCount);\n  }\n  \n  function freezeMarket() \n    public\n    onlyOwner()\n  {\n    stopped = true;      \n  }\n  \n  function resumeMarket()\n    public\n    onlyOwner()\n  {\n    stopped = false;\n  }\n  \n  function withdrawAll() \n    public\n    onlyOwner()\n    onlyInEmergency()\n  {\n    owner.transfer(address(this).balance);\n  }\n  \n  function addAdmin(address _user)\n    public\n    stopInEmergency()\n    onlyOwner()\n  {\n    isAdmin[_user] = true;\n    emit AdminAdded(_user);\n  }\n  \n  function removeAdmin(address _user)\n    public\n    onlyOwner()\n    stopInEmergency()\n  {\n    isAdmin[_user] = false;\n    emit AdminAdded(_user);\n  }\n  \n  \n  function getStore(uint _storeID)\n    public\n    view\n    checkStoreExistence(_storeID)\n    returns(string memory name, address owner)\n  {\n    Store memory store = stores[_storeID];\n    return (store.storeName, store.storeOwner);\n  }\n  \n  function getStoreBalance(uint _storeID)\n    public\n    view\n    stopInEmergency()\n    checkOwnerOfStore(msg.sender, _storeID)\n    returns(uint)\n  {\n    return stores[_storeID].balance;\n  }\n\n  // If nothing is mathced do this.\n  function() external {\n    revert();\n  }\n\n}\n",
  "sourcePath": "/home/jiren/GitHub/final-project-aashutoshrathi/contracts/Market.sol",
  "compiler": {
    "name": "solc",
    "version": "0.5.0+commit.1d4f565a.Emscripten.clang"
  },
  "schemaVersion": "3.0.1",
  "updatedAt": "2019-01-27T14:33:10.909Z",
  "devdoc": {
    "methods": {}
  },
  "userdoc": {
    "methods": {}
  }
}