{
  "contractName": "Market",
  "abi": [
    {
      "constant": true,
      "inputs": [
        {
          "name": "",
          "type": "address"
        }
      ],
      "name": "people",
      "outputs": [
        {
          "name": "name",
          "type": "string"
        }
      ],
      "payable": false,
      "stateMutability": "view",
      "type": "function",
      "signature": "0x07de9735"
    },
    {
      "constant": true,
      "inputs": [
        {
          "name": "",
          "type": "address"
        }
      ],
      "name": "isAdmin",
      "outputs": [
        {
          "name": "",
          "type": "bool"
        }
      ],
      "payable": false,
      "stateMutability": "view",
      "type": "function",
      "signature": "0x24d7806c"
    },
    {
      "constant": false,
      "inputs": [],
      "name": "emergencyStop",
      "outputs": [],
      "payable": false,
      "stateMutability": "nonpayable",
      "type": "function",
      "signature": "0x63a599a4"
    },
    {
      "constant": true,
      "inputs": [],
      "name": "stopped",
      "outputs": [
        {
          "name": "",
          "type": "bool"
        }
      ],
      "payable": false,
      "stateMutability": "view",
      "type": "function",
      "signature": "0x75f12b21"
    },
    {
      "constant": false,
      "inputs": [],
      "name": "release",
      "outputs": [],
      "payable": false,
      "stateMutability": "nonpayable",
      "type": "function",
      "signature": "0x86d1a69f"
    },
    {
      "constant": true,
      "inputs": [
        {
          "name": "",
          "type": "uint256"
        }
      ],
      "name": "stores",
      "outputs": [
        {
          "name": "storeOwner",
          "type": "address"
        },
        {
          "name": "storeName",
          "type": "string"
        },
        {
          "name": "storeSkuCount",
          "type": "uint256"
        },
        {
          "name": "storeBalance",
          "type": "uint256"
        }
      ],
      "payable": false,
      "stateMutability": "view",
      "type": "function",
      "signature": "0xe8a59cd8"
    },
    {
      "constant": false,
      "inputs": [
        {
          "name": "newOwner",
          "type": "address"
        }
      ],
      "name": "transferOwnership",
      "outputs": [],
      "payable": false,
      "stateMutability": "nonpayable",
      "type": "function",
      "signature": "0xf2fde38b"
    },
    {
      "inputs": [],
      "payable": false,
      "stateMutability": "nonpayable",
      "type": "constructor",
      "signature": "constructor"
    },
    {
      "payable": false,
      "stateMutability": "nonpayable",
      "type": "fallback"
    },
    {
      "anonymous": false,
      "inputs": [
        {
          "indexed": false,
          "name": "_sku",
          "type": "uint256"
        },
        {
          "indexed": false,
          "name": "_storeID",
          "type": "uint256"
        },
        {
          "indexed": false,
          "name": "_name",
          "type": "string"
        },
        {
          "indexed": false,
          "name": "_quantity",
          "type": "uint256"
        }
      ],
      "name": "ForSale",
      "type": "event",
      "signature": "0x0004dadcdf342dce90d0bed1bc9d084fe3476b947f1fa7d0e9214836b8fbc071"
    },
    {
      "anonymous": false,
      "inputs": [
        {
          "indexed": false,
          "name": "_sku",
          "type": "uint256"
        },
        {
          "indexed": false,
          "name": "_storeID",
          "type": "uint256"
        },
        {
          "indexed": false,
          "name": "_quantity",
          "type": "uint256"
        }
      ],
      "name": "Sold",
      "type": "event",
      "signature": "0xb94ad6b739f9bef4a950b4e9ce06c0f6f6bcfc31bea46cc96187fb7cd1066cab"
    },
    {
      "anonymous": false,
      "inputs": [
        {
          "indexed": false,
          "name": "_user",
          "type": "address"
        }
      ],
      "name": "AdminAdded",
      "type": "event",
      "signature": "0x44d6d25963f097ad14f29f06854a01f575648a1ef82f30e562ccd3889717e339"
    },
    {
      "anonymous": false,
      "inputs": [
        {
          "indexed": false,
          "name": "_user",
          "type": "address"
        }
      ],
      "name": "AdminRemoved",
      "type": "event",
      "signature": "0xa3b62bc36326052d97ea62d63c3d60308ed4c3ea8ac079dd8499f1e9c4f80c0f"
    },
    {
      "anonymous": false,
      "inputs": [
        {
          "indexed": false,
          "name": "_owner",
          "type": "address"
        },
        {
          "indexed": false,
          "name": "_name",
          "type": "string"
        },
        {
          "indexed": false,
          "name": "_skuCount",
          "type": "uint256"
        }
      ],
      "name": "StoreAdded",
      "type": "event",
      "signature": "0xe92ae8a235222aeb21f92971dd64a849c4ba8949f40711335f43e76f0074d2e2"
    },
    {
      "anonymous": false,
      "inputs": [
        {
          "indexed": false,
          "name": "_user",
          "type": "address"
        }
      ],
      "name": "StoreRemoved",
      "type": "event",
      "signature": "0x8a3674246878227c5067d2b007a4bacdcade1cc2e8528c08c068d1987e99119c"
    },
    {
      "anonymous": false,
      "inputs": [
        {
          "indexed": false,
          "name": "_storeID",
          "type": "uint256"
        },
        {
          "indexed": false,
          "name": "balanceToWithdraw",
          "type": "uint256"
        }
      ],
      "name": "StoreBalanceWithdrawn",
      "type": "event",
      "signature": "0x6a428efd7d4047ca307658bde77396d9c8e8d69db0f2bdb84b71f88870647538"
    },
    {
      "anonymous": false,
      "inputs": [
        {
          "indexed": false,
          "name": "_storeID",
          "type": "uint256"
        },
        {
          "indexed": false,
          "name": "_sku",
          "type": "uint256"
        }
      ],
      "name": "ItemDeleted",
      "type": "event",
      "signature": "0xd2dd399ffb85e7eb11adef9ec4596e2d4f0efd88638581a6b56c14978923d4b3"
    },
    {
      "constant": true,
      "inputs": [
        {
          "name": "_storeID",
          "type": "uint256"
        }
      ],
      "name": "getStoreItemCount",
      "outputs": [
        {
          "name": "",
          "type": "uint256"
        }
      ],
      "payable": false,
      "stateMutability": "view",
      "type": "function",
      "signature": "0xc806b275"
    },
    {
      "constant": true,
      "inputs": [],
      "name": "getStoreCount",
      "outputs": [
        {
          "name": "",
          "type": "uint256"
        }
      ],
      "payable": false,
      "stateMutability": "view",
      "type": "function",
      "signature": "0x98e8bd97"
    },
    {
      "constant": true,
      "inputs": [
        {
          "name": "_storeID",
          "type": "uint256"
        },
        {
          "name": "_itemCode",
          "type": "uint256"
        }
      ],
      "name": "getOrderDetails",
      "outputs": [
        {
          "name": "",
          "type": "uint256"
        },
        {
          "name": "",
          "type": "uint256"
        }
      ],
      "payable": false,
      "stateMutability": "view",
      "type": "function",
      "signature": "0x2c203edd"
    },
    {
      "constant": false,
      "inputs": [
        {
          "name": "_name",
          "type": "string"
        },
        {
          "name": "_price",
          "type": "uint256"
        },
        {
          "name": "_sku",
          "type": "uint256"
        },
        {
          "name": "_storeID",
          "type": "uint256"
        }
      ],
      "name": "addItem",
      "outputs": [],
      "payable": false,
      "stateMutability": "nonpayable",
      "type": "function",
      "signature": "0xdc0dd677"
    },
    {
      "constant": false,
      "inputs": [
        {
          "name": "_sku",
          "type": "uint256"
        },
        {
          "name": "_storeID",
          "type": "uint256"
        }
      ],
      "name": "deleteItem",
      "outputs": [],
      "payable": false,
      "stateMutability": "nonpayable",
      "type": "function",
      "signature": "0x618a7e1d"
    },
    {
      "constant": false,
      "inputs": [
        {
          "name": "_sku",
          "type": "uint256"
        },
        {
          "name": "_quantity",
          "type": "uint256"
        },
        {
          "name": "_storeID",
          "type": "uint256"
        }
      ],
      "name": "buyItem",
      "outputs": [],
      "payable": true,
      "stateMutability": "payable",
      "type": "function",
      "signature": "0x1f6a8318"
    },
    {
      "constant": false,
      "inputs": [
        {
          "name": "_storeID",
          "type": "uint256"
        },
        {
          "name": "amountToWithdraw",
          "type": "uint256"
        }
      ],
      "name": "withdrawStoreBalance",
      "outputs": [],
      "payable": true,
      "stateMutability": "payable",
      "type": "function",
      "signature": "0x8d217ad0"
    },
    {
      "constant": true,
      "inputs": [
        {
          "name": "_sku",
          "type": "uint256"
        },
        {
          "name": "_storeID",
          "type": "uint256"
        }
      ],
      "name": "fetchItem",
      "outputs": [
        {
          "name": "name",
          "type": "string"
        },
        {
          "name": "sku",
          "type": "uint256"
        },
        {
          "name": "price",
          "type": "uint256"
        }
      ],
      "payable": false,
      "stateMutability": "view",
      "type": "function",
      "signature": "0xd5e57da6"
    },
    {
      "constant": false,
      "inputs": [
        {
          "name": "_name",
          "type": "string"
        },
        {
          "name": "_storeOwner",
          "type": "address"
        },
        {
          "name": "_storeSkuCount",
          "type": "uint256"
        }
      ],
      "name": "addStore",
      "outputs": [],
      "payable": false,
      "stateMutability": "nonpayable",
      "type": "function",
      "signature": "0x41e35598"
    },
    {
      "constant": false,
      "inputs": [],
      "name": "freezeMarket",
      "outputs": [],
      "payable": false,
      "stateMutability": "nonpayable",
      "type": "function",
      "signature": "0xdf2e5066"
    },
    {
      "constant": false,
      "inputs": [],
      "name": "resumeMarket",
      "outputs": [],
      "payable": false,
      "stateMutability": "nonpayable",
      "type": "function",
      "signature": "0x9319106b"
    },
    {
      "constant": false,
      "inputs": [],
      "name": "withdrawAll",
      "outputs": [],
      "payable": false,
      "stateMutability": "nonpayable",
      "type": "function",
      "signature": "0x853828b6"
    },
    {
      "constant": false,
      "inputs": [
        {
          "name": "_user",
          "type": "address"
        }
      ],
      "name": "addAdmin",
      "outputs": [],
      "payable": false,
      "stateMutability": "nonpayable",
      "type": "function",
      "signature": "0x70480275"
    },
    {
      "constant": false,
      "inputs": [
        {
          "name": "_user",
          "type": "address"
        }
      ],
      "name": "removeAdmin",
      "outputs": [],
      "payable": false,
      "stateMutability": "nonpayable",
      "type": "function",
      "signature": "0x1785f53c"
    },
    {
      "constant": true,
      "inputs": [
        {
          "name": "_storeID",
          "type": "uint256"
        }
      ],
      "name": "getStore",
      "outputs": [
        {
          "name": "",
          "type": "string"
        },
        {
          "name": "",
          "type": "address"
        },
        {
          "name": "",
          "type": "uint256"
        }
      ],
      "payable": false,
      "stateMutability": "view",
      "type": "function",
      "signature": "0x83403120"
    },
    {
      "constant": true,
      "inputs": [
        {
          "name": "_storeID",
          "type": "uint256"
        }
      ],
      "name": "getStoreBalance",
      "outputs": [
        {
          "name": "",
          "type": "uint256"
        }
      ],
      "payable": false,
      "stateMutability": "view",
      "type": "function",
      "signature": "0x7b410393"
    }
  ],
  "bytecode": "0x6080604052600060015560006002556000600360006101000a81548160ff02191690831515021790555034801561003557600080fd5b50336000806101000a81548173ffffffffffffffffffffffffffffffffffffffff021916908373ffffffffffffffffffffffffffffffffffffffff1602179055506001600560008060009054906101000a900473ffffffffffffffffffffffffffffffffffffffff1673ffffffffffffffffffffffffffffffffffffffff1673ffffffffffffffffffffffffffffffffffffffff16815260200190815260200160002060006101000a81548160ff021916908315150217905550612261806100fe6000396000f3fe608060405260043610610133576000357c0100000000000000000000000000000000000000000000000000000000900463ffffffff16806307de9735146101455780631785f53c1461020f5780631f6a83181461026057806324d7806c146102a25780632c203edd1461030b57806341e355981461036b578063618a7e1d1461045d57806363a599a4146104a257806370480275146104b957806375f12b211461050a5780637b410393146105395780638340312014610588578063853828b61461067657806386d1a69f1461068d5780638d217ad0146106a45780639319106b146106dc57806398e8bd97146106f3578063c806b2751461071e578063d5e57da61461076d578063dc0dd67714610839578063df2e50661461091f578063e8a59cd814610936578063f2fde38b14610a2b575b34801561013f57600080fd5b50600080fd5b34801561015157600080fd5b506101946004803603602081101561016857600080fd5b81019080803573ffffffffffffffffffffffffffffffffffffffff169060200190929190505050610a7c565b6040518080602001828103825283818151815260200191508051906020019080838360005b838110156101d45780820151818401526020810190506101b9565b50505050905090810190601f1680156102015780820380516001836020036101000a031916815260200191505b509250505060405180910390f35b34801561021b57600080fd5b5061025e6004803603602081101561023257600080fd5b81019080803573ffffffffffffffffffffffffffffffffffffffff169060200190929190505050610b32565b005b6102a06004803603606081101561027657600080fd5b81019080803590602001909291908035906020019092919080359060200190929190505050610c5d565b005b3480156102ae57600080fd5b506102f1600480360360208110156102c557600080fd5b81019080803573ffffffffffffffffffffffffffffffffffffffff169060200190929190505050610eaf565b604051808215151515815260200191505060405180910390f35b34801561031757600080fd5b5061034e6004803603604081101561032e57600080fd5b810190808035906020019092919080359060200190929190505050610ecf565b604051808381526020018281526020019250505060405180910390f35b34801561037757600080fd5b5061045b6004803603606081101561038e57600080fd5b81019080803590602001906401000000008111156103ab57600080fd5b8201836020820111156103bd57600080fd5b803590602001918460018302840111640100000000831117156103df57600080fd5b91908080601f016020809104026020016040519081016040528093929190818152602001838380828437600081840152601f19601f820116905080830192505050505050509192919290803573ffffffffffffffffffffffffffffffffffffffff16906020019092919080359060200190929190505050610f79565b005b34801561046957600080fd5b506104a06004803603604081101561048057600080fd5b8101908080359060200190929190803590602001909291905050506111c1565b005b3480156104ae57600080fd5b506104b76112d9565b005b3480156104c557600080fd5b50610508600480360360208110156104dc57600080fd5b81019080803573ffffffffffffffffffffffffffffffffffffffff16906020019092919050505061134c565b005b34801561051657600080fd5b5061051f611477565b604051808215151515815260200191505060405180910390f35b34801561054557600080fd5b506105726004803603602081101561055c57600080fd5b810190808035906020019092919050505061148a565b6040518082815260200191505060405180910390f35b34801561059457600080fd5b506105c1600480360360208110156105ab57600080fd5b81019080803590602001909291905050506114c0565b60405180806020018473ffffffffffffffffffffffffffffffffffffffff1673ffffffffffffffffffffffffffffffffffffffff168152602001838152602001828103825285818151815260200191508051906020019080838360005b8381101561063957808201518184015260208101905061061e565b50505050905090810190601f1680156106665780820380516001836020036101000a031916815260200191505b5094505050505060405180910390f35b34801561068257600080fd5b5061068b611699565b005b34801561069957600080fd5b506106a2611786565b005b6106da600480360360408110156106ba57600080fd5b81019080803590602001909291908035906020019092919050505061180e565b005b3480156106e857600080fd5b506106f16119b8565b005b3480156106ff57600080fd5b50610708611a2b565b6040518082815260200191505060405180910390f35b34801561072a57600080fd5b506107576004803603602081101561074157600080fd5b8101908080359060200190929190505050611a35565b6040518082815260200191505060405180910390f35b34801561077957600080fd5b506107b06004803603604081101561079057600080fd5b810190808035906020019092919080359060200190929190505050611a55565b6040518080602001848152602001838152602001828103825285818151815260200191508051906020019080838360005b838110156107fc5780820151818401526020810190506107e1565b50505050905090810190601f1680156108295780820380516001836020036101000a031916815260200191505b5094505050505060405180910390f35b34801561084557600080fd5b5061091d6004803603608081101561085c57600080fd5b810190808035906020019064010000000081111561087957600080fd5b82018360208201111561088b57600080fd5b803590602001918460018302840111640100000000831117156108ad57600080fd5b91908080601f016020809104026020016040519081016040528093929190818152602001838380828437600081840152601f19601f820116905080830192505050505050509192919290803590602001909291908035906020019092919080359060200190929190505050611b8a565b005b34801561092b57600080fd5b50610934611e3b565b005b34801561094257600080fd5b5061096f6004803603602081101561095957600080fd5b8101908080359060200190929190505050611eae565b604051808573ffffffffffffffffffffffffffffffffffffffff1673ffffffffffffffffffffffffffffffffffffffff16815260200180602001848152602001838152602001828103825285818151815260200191508051906020019080838360005b838110156109ed5780820151818401526020810190506109d2565b50505050905090810190601f168015610a1a5780820380516001836020036101000a031916815260200191505b509550505050505060405180910390f35b348015610a3757600080fd5b50610a7a60048036036020811015610a4e57600080fd5b81019080803573ffffffffffffffffffffffffffffffffffffffff169060200190929190505050611f96565b005b6006602052806000526040600020600091509050806000018054600181600116156101000203166002900480601f016020809104026020016040519081016040528092919081815260200182805460018160011615610100020316600290048015610b285780601f10610afd57610100808354040283529160200191610b28565b820191906000526020600020905b815481529060010190602001808311610b0b57829003601f168201915b5050505050905081565b6000809054906101000a900473ffffffffffffffffffffffffffffffffffffffff1673ffffffffffffffffffffffffffffffffffffffff163373ffffffffffffffffffffffffffffffffffffffff161415610c5a57600060149054906101000a900460ff161515610c59576000600560008373ffffffffffffffffffffffffffffffffffffffff1673ffffffffffffffffffffffffffffffffffffffff16815260200190815260200160002060006101000a81548160ff0219169083151502179055507f44d6d25963f097ad14f29f06854a01f575648a1ef82f30e562ccd3889717e33981604051808273ffffffffffffffffffffffffffffffffffffffff1673ffffffffffffffffffffffffffffffffffffffff16815260200191505060405180910390a15b5b50565b600060149054906101000a900460ff161515610eaa57610ca76004600083815260200190815260200160002060040160008581526020019081526020016000206002015483612066565b803410151515610cb657600080fd5b6000610cec6004600085815260200190815260200160002060040160008781526020019081526020016000206002015485612066565b9050610d2260046000858152602001908152602001600020600401600087815260200190815260200160002060010154856120a4565b60046000858152602001908152602001600020600401600087815260200190815260200160002060010181905550610d706004600085815260200190815260200160002060030154826120c6565b6004600085815260200190815260200160002060030181905550610df8600660003373ffffffffffffffffffffffffffffffffffffffff1673ffffffffffffffffffffffffffffffffffffffff1681526020019081526020016000206001016000858152602001908152602001600020600087815260200190815260200160002054856120c6565b600660003373ffffffffffffffffffffffffffffffffffffffff1673ffffffffffffffffffffffffffffffffffffffff16815260200190815260200160002060010160008581526020019081526020016000206000878152602001908152602001600020819055507fb94ad6b739f9bef4a950b4e9ce06c0f6f6bcfc31bea46cc96187fb7cd1066cab85848660405180848152602001838152602001828152602001935050505060405180910390a150505b505050565b60056020528060005260406000206000915054906101000a900460ff1681565b6000806000600660003373ffffffffffffffffffffffffffffffffffffffff1673ffffffffffffffffffffffffffffffffffffffff16815260200190815260200160002060010160008681526020019081526020016000206000858152602001908152602001600020549050600060046000878152602001908152602001600020600401600086815260200190815260200160002060020154905081819350935050509250929050565b600060149054906101000a900460ff1615156111bc57601483511115151561102f576040517f08c379a00000000000000000000000000000000000000000000000000000000081526004018080602001828103825260258152602001807f506c65617365206b656570206e616d6520756e6465722032302063686172616381526020017f687465727300000000000000000000000000000000000000000000000000000081525060400191505060405180910390fd5b82600460006002548152602001908152602001600020600101908051906020019061105b9291906120e7565b508160046000600254815260200190815260200160002060000160006101000a81548173ffffffffffffffffffffffffffffffffffffffff021916908373ffffffffffffffffffffffffffffffffffffffff16021790555080600460006002548152602001908152602001600020600201819055506110dd60025460016120c6565b6002819055507fe92ae8a235222aeb21f92971dd64a849c4ba8949f40711335f43e76f0074d2e2828483604051808473ffffffffffffffffffffffffffffffffffffffff1673ffffffffffffffffffffffffffffffffffffffff16815260200180602001838152602001828103825284818151815260200191508051906020019080838360005b8381101561117f578082015181840152602081019050611164565b50505050905090810190601f1680156111ac5780820380516001836020036101000a031916815260200191505b5094505050505060405180910390a15b505050565b33816004600082815260200190815260200160002060000160009054906101000a900473ffffffffffffffffffffffffffffffffffffffff1673ffffffffffffffffffffffffffffffffffffffff168273ffffffffffffffffffffffffffffffffffffffff1614151561123357600080fd5b600060149054906101000a900460ff1615156112d357600460008481526020019081526020016000206004016000858152602001908152602001600020600080820160006112819190612167565b6001820160009055600282016000905550507fd2dd399ffb85e7eb11adef9ec4596e2d4f0efd88638581a6b56c14978923d4b38385604051808381526020018281526020019250505060405180910390a15b50505050565b6000809054906101000a900473ffffffffffffffffffffffffffffffffffffffff1673ffffffffffffffffffffffffffffffffffffffff163373ffffffffffffffffffffffffffffffffffffffff16141561134a576001600060146101000a81548160ff0219169083151502179055505b565b600060149054906101000a900460ff161515611474576000809054906101000a900473ffffffffffffffffffffffffffffffffffffffff1673ffffffffffffffffffffffffffffffffffffffff163373ffffffffffffffffffffffffffffffffffffffff161415611473576001600560008373ffffffffffffffffffffffffffffffffffffffff1673ffffffffffffffffffffffffffffffffffffffff16815260200190815260200160002060006101000a81548160ff0219169083151502179055507f44d6d25963f097ad14f29f06854a01f575648a1ef82f30e562ccd3889717e33981604051808273ffffffffffffffffffffffffffffffffffffffff1673ffffffffffffffffffffffffffffffffffffffff16815260200191505060405180910390a15b5b50565b600360009054906101000a900460ff1681565b60008060149054906101000a900460ff1615156114bb57600460008381526020019081526020016000206003015490505b919050565b6060600080836002548111151515611540576040517f08c379a00000000000000000000000000000000000000000000000000000000081526004018080602001828103825260188152602001807f496e76616c69642053746f726549442070726f7669646564000000000000000081525060200191505060405180910390fd5b6115486121af565b60046000878152602001908152602001600020608060405190810160405290816000820160009054906101000a900473ffffffffffffffffffffffffffffffffffffffff1673ffffffffffffffffffffffffffffffffffffffff1673ffffffffffffffffffffffffffffffffffffffff168152602001600182018054600181600116156101000203166002900480601f0160208091040260200160405190810160405280929190818152602001828054600181600116156101000203166002900480156116565780601f1061162b57610100808354040283529160200191611656565b820191906000526020600020905b81548152906001019060200180831161163957829003601f168201915b5050505050815260200160028201548152602001600382015481525050905080602001518160000151826040015182925081915094509450945050509193909250565b6000809054906101000a900473ffffffffffffffffffffffffffffffffffffffff1673ffffffffffffffffffffffffffffffffffffffff163373ffffffffffffffffffffffffffffffffffffffff16141561178457600060149054906101000a900460ff1615611783576000809054906101000a900473ffffffffffffffffffffffffffffffffffffffff1673ffffffffffffffffffffffffffffffffffffffff166108fc3073ffffffffffffffffffffffffffffffffffffffff16319081150290604051600060405180830381858888f19350505050158015611781573d6000803e3d6000fd5b505b5b565b6000809054906101000a900473ffffffffffffffffffffffffffffffffffffffff1673ffffffffffffffffffffffffffffffffffffffff163373ffffffffffffffffffffffffffffffffffffffff16141561180c57600060149054906101000a900460ff161561180b5760008060146101000a81548160ff0219169083151502179055505b5b565b600060149054906101000a900460ff1615156119b45733826004600082815260200190815260200160002060000160009054906101000a900473ffffffffffffffffffffffffffffffffffffffff1673ffffffffffffffffffffffffffffffffffffffff168273ffffffffffffffffffffffffffffffffffffffff1614151561189657600080fd5b600460008581526020019081526020016000206003015483111515156118bb57600080fd5b6004600085815260200190815260200160002060000160009054906101000a900473ffffffffffffffffffffffffffffffffffffffff1673ffffffffffffffffffffffffffffffffffffffff166108fc849081150290604051600060405180830381858888f19350505050158015611937573d6000803e3d6000fd5b506119586004600086815260200190815260200160002060030154846120a4565b60046000868152602001908152602001600020600301819055507f6a428efd7d4047ca307658bde77396d9c8e8d69db0f2bdb84b71f888706475388484604051808381526020018281526020019250505060405180910390a150505b5050565b6000809054906101000a900473ffffffffffffffffffffffffffffffffffffffff1673ffffffffffffffffffffffffffffffffffffffff163373ffffffffffffffffffffffffffffffffffffffff161415611a29576000600360006101000a81548160ff0219169083151502179055505b565b6000600254905090565b600060046000838152602001908152602001600020600201549050919050565b6060600080600060149054906101000a900460ff161515611b8357611a786121ee565b60046000868152602001908152602001600020600401600087815260200190815260200160002060606040519081016040529081600082018054600181600116156101000203166002900480601f016020809104026020016040519081016040528092919081815260200182805460018160011615610100020316600290048015611b445780601f10611b1957610100808354040283529160200191611b44565b820191906000526020600020905b815481529060010190602001808311611b2757829003601f168201915b50505050508152602001600182015481526020016002820154815250509050806000015193508060200151925080604001519150838383935093509350505b9250925092565b33816004600082815260200190815260200160002060000160009054906101000a900473ffffffffffffffffffffffffffffffffffffffff1673ffffffffffffffffffffffffffffffffffffffff168273ffffffffffffffffffffffffffffffffffffffff16141515611bfc57600080fd5b600060149054906101000a900460ff161515611e33576014865111151515611c8c576040517f08c379a000000000000000000000000000000000000000000000000000000000815260040180806020018281038252601f8152602001807f506c65617365206b656570206e616d6520756e6465722032302063686172730081525060200191505060405180910390fd5b611c9960015460016120c6565b600181905550600060046000858152602001908152602001600020600201549050866004600086815260200190815260200160002060040160008381526020019081526020016000206000019080519060200190611cf89291906120e7565b5085600460008681526020019081526020016000206004016000838152602001908152602001600020600201819055508460046000868152602001908152602001600020600401600083815260200190815260200160002060010181905550611d628160016120c6565b60046000868152602001908152602001600020600201819055507e04dadcdf342dce90d0bed1bc9d084fe3476b947f1fa7d0e9214836b8fbc0716001548589886040518085815260200184815260200180602001838152602001828103825284818151815260200191508051906020019080838360005b83811015611df4578082015181840152602081019050611dd9565b50505050905090810190601f168015611e215780820380516001836020036101000a031916815260200191505b509550505050505060405180910390a1505b505050505050565b6000809054906101000a900473ffffffffffffffffffffffffffffffffffffffff1673ffffffffffffffffffffffffffffffffffffffff163373ffffffffffffffffffffffffffffffffffffffff161415611eac576001600360006101000a81548160ff0219169083151502179055505b565b60046020528060005260406000206000915090508060000160009054906101000a900473ffffffffffffffffffffffffffffffffffffffff1690806001018054600181600116156101000203166002900480601f016020809104026020016040519081016040528092919081815260200182805460018160011615610100020316600290048015611f805780601f10611f5557610100808354040283529160200191611f80565b820191906000526020600020905b815481529060010190602001808311611f6357829003601f168201915b5050505050908060020154908060030154905084565b6000809054906101000a900473ffffffffffffffffffffffffffffffffffffffff1673ffffffffffffffffffffffffffffffffffffffff163373ffffffffffffffffffffffffffffffffffffffff16141561206357600073ffffffffffffffffffffffffffffffffffffffff168173ffffffffffffffffffffffffffffffffffffffff1614151561206257806000806101000a81548173ffffffffffffffffffffffffffffffffffffffff021916908373ffffffffffffffffffffffffffffffffffffffff1602179055505b5b50565b600080831415612079576000905061209e565b6000828402905082848281151561208c57fe5b0414151561209957600080fd5b809150505b92915050565b60008282111515156120b557600080fd5b600082840390508091505092915050565b60008082840190508381101515156120dd57600080fd5b8091505092915050565b828054600181600116156101000203166002900490600052602060002090601f016020900481019282601f1061212857805160ff1916838001178555612156565b82800160010185558215612156579182015b8281111561215557825182559160200191906001019061213a565b5b5090506121639190612210565b5090565b50805460018160011615610100020316600290046000825580601f1061218d57506121ac565b601f0160209004906000526020600020908101906121ab9190612210565b5b50565b608060405190810160405280600073ffffffffffffffffffffffffffffffffffffffff1681526020016060815260200160008152602001600081525090565b6060604051908101604052806060815260200160008152602001600081525090565b61223291905b8082111561222e576000816000905550600101612216565b5090565b9056fea165627a7a723058201944c8b3e8c6a071fea9ca73d93ea2235791a8948e3ece007f17901131017b530029",
  "source": "pragma solidity ^0.5.0;\n\nimport \"./SafeMath.sol\";\nimport \"./Ownable.sol\";\nimport \"./Stoppable.sol\";\n\ncontract Market is Ownable, Stoppable {\n  using SafeMath for uint;\n  uint skuCount = 0;\n  uint storeCount = 0;\n  \n  // for circuit breaker\n  bool public stopped = false;\n  \n  struct User{\n    string name;\n    mapping(uint => mapping(uint => uint)) orders;\n    // storeID => itemID => quantity\n  }\n\n  struct Store {\n    address payable storeOwner;\n    string storeName;\n    uint storeSkuCount;\n    uint storeBalance;\n    mapping (uint=>Item) storeItems;\n  }\n\n\n  struct Item {\n    string name;\n    uint sku;\n    uint price;\n  }\n\n  mapping(uint => Store) public stores;\n  mapping(address => bool) public isAdmin;\n  mapping(address => User) public people;\n  event ForSale(uint _sku, uint _storeID, string _name, uint _quantity);\n  event Sold(uint _sku, uint _storeID, uint _quantity);\n  event AdminAdded(address _user);\n  event AdminRemoved(address _user);\n  event StoreAdded(address _owner, string _name, uint _skuCount);\n  event StoreRemoved(address _user);\n  event StoreBalanceWithdrawn(uint _storeID, uint balanceToWithdraw);\n  event ItemDeleted(uint _storeID, uint _sku);\n\n  modifier verifyCaller (address _address) { \n    require (msg.sender == _address); \n    _;\n  }\n\n  modifier checkStoreExistence(uint _storeID) {\n    require(_storeID <= storeCount, \"Invalid StoreID provided\");\n    _;\n  }\n\n  modifier checkOwnerOfStore(address _storeOwner, uint _storeID) {\n    // Why I removed fallback string?\n    // https://github.com/ethereum/solidity/issues/3971\n    require (_storeOwner == stores[_storeID].storeOwner);\n    _;\n  }\n\n  modifier paidEnough(uint _totalPrice) { \n    require(msg.value >= _totalPrice); \n    _;\n  }\n\n  modifier checkQuantity(uint _quantity, uint _storeID, uint _itemCode) {\n    require(_quantity <= stores[_storeID].storeItems[_itemCode].sku, \"Not sufficient quantity available\");\n    _;\n  }\n  \n  constructor() public {\n    isAdmin[owner] = true;\n  }\n  \n  function getStoreItemCount(uint _storeID)\n    public\n    view\n    returns(uint)\n  {\n      return stores[_storeID].storeSkuCount;\n  }\n  \n  function getStoreCount()\n    public\n    view\n    returns(uint)\n  {\n      return storeCount;\n  }\n  \n  function getOrderDetails(uint _storeID, uint _itemCode)\n    public\n    view\n    returns(uint, uint)\n  {\n    uint quantity = people[msg.sender].orders[_storeID][_itemCode];\n    uint price = stores[_storeID].storeItems[_itemCode].price;\n    return(quantity, price);\n  }\n\n  function addItem(string memory _name, uint _price, uint _sku, uint _storeID) public \n    checkOwnerOfStore(msg.sender, _storeID)\n    stopInEmergency()\n  {\n    require(bytes(_name).length <= 20, \"Please keep name under 20 chars\"); // This makes sure that we don't end up using infinite gas\n    skuCount = SafeMath.add(skuCount, 1);\n    uint count = stores[_storeID].storeSkuCount; // increase overall items count\n    stores[_storeID].storeItems[count].name = _name;\n    stores[_storeID].storeItems[count].price = _price;\n    stores[_storeID].storeItems[count].sku = _sku;\n    stores[_storeID].storeSkuCount = SafeMath.add(count, 1); // increase overall items count\n    emit ForSale(skuCount, _storeID, _name, _sku);\n  }\n\n  function deleteItem(uint _sku, uint _storeID) public \n    checkOwnerOfStore(msg.sender, _storeID)\n    stopInEmergency()\n  {\n    delete stores[_storeID].storeItems[_sku];\n    emit ItemDeleted(_storeID, _sku);\n  }\n\n  function buyItem(uint _sku, uint _quantity, uint _storeID)\n    public\n    payable\n    stopInEmergency()\n    paidEnough(SafeMath.mul(stores[_storeID].storeItems[_sku].price, _quantity))\n  {\n    uint transactAmount = SafeMath.mul(stores[_storeID].storeItems[_sku].price, _quantity);\n    stores[_storeID].storeItems[_sku].sku = SafeMath.sub(stores[_storeID].storeItems[_sku].sku,  _quantity);\n    stores[_storeID].storeBalance = SafeMath.add(stores[_storeID].storeBalance, transactAmount);\n    people[msg.sender].orders[_storeID][_sku] = SafeMath.add(people[msg.sender].orders[_storeID][_sku], _quantity);\n    emit Sold(_sku, _storeID, _quantity);\n  }\n  \n  function withdrawStoreBalance(uint _storeID, uint amountToWithdraw)\n    public\n    payable\n    stopInEmergency()\n    checkOwnerOfStore(msg.sender, _storeID)\n  {\n    require(amountToWithdraw <= stores[_storeID].storeBalance);\n    stores[_storeID].storeOwner.transfer(amountToWithdraw);\n    stores[_storeID].storeBalance = SafeMath.sub(stores[_storeID].storeBalance, amountToWithdraw);\n    emit StoreBalanceWithdrawn(_storeID, amountToWithdraw);\n  }\n  \n  function fetchItem(uint _sku, uint _storeID)\n    stopInEmergency()\n    public \n    view\n    returns (string memory name, uint sku, uint price) \n  {\n    Item memory item = stores[_storeID].storeItems[_sku];\n    name = item.name;\n    sku = item.sku;\n    price = item.price;\n    return (name, sku, price);\n  }\n\n  function addStore(string memory _name, address payable _storeOwner, uint _storeSkuCount) \n    public\n    stopInEmergency()\n  {\n    require(bytes(_name).length <= 20, \"Please keep name under 20 charachters\"); // This makes sure that we don't end up using infinite gas.\n    stores[storeCount].storeName = _name;\n    stores[storeCount].storeOwner = _storeOwner;\n    stores[storeCount].storeSkuCount = _storeSkuCount;\n    storeCount = SafeMath.add(storeCount, 1);\n    emit StoreAdded(_storeOwner, _name, _storeSkuCount);\n  }\n  \n  function freezeMarket() \n    public\n    onlyOwner()\n  {\n    stopped = true;      \n  }\n  \n  function resumeMarket()\n    public\n    onlyOwner()\n  {\n    stopped = false;\n  }\n  \n  function withdrawAll() \n    public\n    onlyOwner()\n    onlyInEmergency()\n  {\n    owner.transfer(address(this).balance);\n  }\n  \n  function addAdmin(address _user)\n    public\n    stopInEmergency()\n    onlyOwner()\n  {\n    isAdmin[_user] = true;\n    emit AdminAdded(_user);\n  }\n  \n  function removeAdmin(address _user)\n    public\n    onlyOwner()\n    stopInEmergency()\n  {\n    isAdmin[_user] = false;\n    emit AdminAdded(_user);\n  }\n  \n  \n  function getStore(uint _storeID)\n    public\n    view\n    checkStoreExistence(_storeID)\n    returns(string memory, address, uint)\n  {\n    Store memory store = stores[_storeID];\n    return (store.storeName, store.storeOwner, store.storeSkuCount);\n  }\n  \n  function getStoreBalance(uint _storeID)\n    public\n    view\n    stopInEmergency()\n    returns(uint)\n  {\n    return stores[_storeID].storeBalance;\n  }\n\n  // If nothing is mathced do this.\n  function() external {\n    revert();\n  }\n\n}\n",
  "sourcePath": "/home/jiren/GitHub/final-project-aashutoshrathi/contracts/Market.sol",
  "compiler": {
    "name": "solc",
    "version": "0.5.0+commit.1d4f565a.Emscripten.clang"
  },
  "schemaVersion": "3.0.1",
  "updatedAt": "2019-01-28T11:37:59.352Z",
  "devdoc": {
    "methods": {}
  },
  "userdoc": {
    "methods": {}
  }
}