{
  "contractName": "Stoppable",
  "abi": [
    {
      "constant": true,
      "inputs": [],
      "name": "stopped",
      "outputs": [
        {
          "name": "",
          "type": "bool"
        }
      ],
      "payable": false,
      "stateMutability": "view",
      "type": "function"
    },
    {
      "constant": false,
      "inputs": [
        {
          "name": "newOwner",
          "type": "address"
        }
      ],
      "name": "transferOwnership",
      "outputs": [],
      "payable": false,
      "stateMutability": "nonpayable",
      "type": "function"
    },
    {
      "constant": false,
      "inputs": [],
      "name": "emergencyStop",
      "outputs": [],
      "payable": false,
      "stateMutability": "nonpayable",
      "type": "function"
    },
    {
      "constant": false,
      "inputs": [],
      "name": "release",
      "outputs": [],
      "payable": false,
      "stateMutability": "nonpayable",
      "type": "function"
    }
  ],
  "bytecode": "0x6080604052336000806101000a81548173ffffffffffffffffffffffffffffffffffffffff021916908373ffffffffffffffffffffffffffffffffffffffff16021790555061031f806100536000396000f3fe608060405260043610610062576000357c0100000000000000000000000000000000000000000000000000000000900463ffffffff16806363a599a41461006757806375f12b211461007e57806386d1a69f146100ad578063f2fde38b146100c4575b600080fd5b34801561007357600080fd5b5061007c610115565b005b34801561008a57600080fd5b50610093610188565b604051808215151515815260200191505060405180910390f35b3480156100b957600080fd5b506100c261019b565b005b3480156100d057600080fd5b50610113600480360360208110156100e757600080fd5b81019080803573ffffffffffffffffffffffffffffffffffffffff169060200190929190505050610223565b005b6000809054906101000a900473ffffffffffffffffffffffffffffffffffffffff1673ffffffffffffffffffffffffffffffffffffffff163373ffffffffffffffffffffffffffffffffffffffff161415610186576001600060146101000a81548160ff0219169083151502179055505b565b600060149054906101000a900460ff1681565b6000809054906101000a900473ffffffffffffffffffffffffffffffffffffffff1673ffffffffffffffffffffffffffffffffffffffff163373ffffffffffffffffffffffffffffffffffffffff16141561022157600060149054906101000a900460ff16156102205760008060146101000a81548160ff0219169083151502179055505b5b565b6000809054906101000a900473ffffffffffffffffffffffffffffffffffffffff1673ffffffffffffffffffffffffffffffffffffffff163373ffffffffffffffffffffffffffffffffffffffff1614156102f057600073ffffffffffffffffffffffffffffffffffffffff168173ffffffffffffffffffffffffffffffffffffffff161415156102ef57806000806101000a81548173ffffffffffffffffffffffffffffffffffffffff021916908373ffffffffffffffffffffffffffffffffffffffff1602179055505b5b5056fea165627a7a7230582098777ac2a17686f3fcc3baa4ccbc8504d54470457ba5da70b46bf83f352691860029",
  "source": "pragma solidity ^0.5.0;\n\nimport \"./Ownable.sol\";\n/*\n * Stoppable\n * Abstract contract that allows children to implement an\n * emergency stop mechanism.\n */\ncontract Stoppable is Ownable {\n  bool public stopped;\n  modifier stopInEmergency { \n    if (!stopped) \n      _; \n  }\n  \n  modifier onlyInEmergency { \n    if (stopped) \n      _; \n  }\n\n  // called by the owner on emergency, triggers stopped state\n  function emergencyStop() external onlyOwner {\n    stopped = true;\n  }\n\n  // called by the owner on end of emergency, returns to normal state\n  function release() external onlyOwner onlyInEmergency {\n    stopped = false;\n  }\n\n}\n",
  "sourcePath": "/home/jiren/GitHub/final-project/contracts/Stoppable.sol",
  "compiler": {
    "name": "solc",
    "version": "0.5.0+commit.1d4f565a.Emscripten.clang"
  },
  "schemaVersion": "3.0.1",
  "updatedAt": "2019-01-26T10:30:33.849Z",
  "devdoc": {
    "methods": {}
  },
  "userdoc": {
    "methods": {}
  }
}